{
    "_format": "hh-sol-artifact-1",
    "contractName": "Marketplace",
    "sourceName": "contracts/marketplace.sol",
    "abi": [
        {
            "inputs": [
                {
                    "internalType": "address",
                    "name": "_nftContractAddress",
                    "type": "address"
                }
            ],
            "stateMutability": "nonpayable",
            "type": "constructor"
        },
        {
            "anonymous": false,
            "inputs": [
                {
                    "indexed": false,
                    "internalType": "uint256",
                    "name": "tokenId",
                    "type": "uint256"
                },
                {
                    "indexed": false,
                    "internalType": "uint256",
                    "name": "listingId",
                    "type": "uint256"
                },
                {
                    "indexed": false,
                    "internalType": "uint256",
                    "name": "bidPrice",
                    "type": "uint256"
                },
                {
                    "indexed": false,
                    "internalType": "address",
                    "name": "bidder",
                    "type": "address"
                }
            ],
            "name": "Bid",
            "type": "event"
        },
        {
            "anonymous": false,
            "inputs": [
                {
                    "indexed": false,
                    "internalType": "uint256",
                    "name": "price",
                    "type": "uint256"
                },
                {
                    "indexed": false,
                    "internalType": "address",
                    "name": "from",
                    "type": "address"
                },
                {
                    "indexed": false,
                    "internalType": "uint256",
                    "name": "listingId",
                    "type": "uint256"
                },
                {
                    "indexed": false,
                    "internalType": "uint256",
                    "name": "tokenId",
                    "type": "uint256"
                }
            ],
            "name": "List",
            "type": "event"
        },
        {
            "anonymous": false,
            "inputs": [
                {
                    "indexed": false,
                    "internalType": "uint256",
                    "name": "price",
                    "type": "uint256"
                },
                {
                    "indexed": false,
                    "internalType": "address",
                    "name": "to",
                    "type": "address"
                },
                {
                    "indexed": false,
                    "internalType": "address",
                    "name": "from",
                    "type": "address"
                },
                {
                    "indexed": false,
                    "internalType": "uint256",
                    "name": "tokenId",
                    "type": "uint256"
                }
            ],
            "name": "Sale",
            "type": "event"
        },
        {
            "inputs": [
                {
                    "internalType": "uint256",
                    "name": "",
                    "type": "uint256"
                }
            ],
            "name": "auctions",
            "outputs": [
                {
                    "internalType": "address",
                    "name": "seller",
                    "type": "address"
                },
                {
                    "internalType": "uint256",
                    "name": "basePrice",
                    "type": "uint256"
                },
                {
                    "internalType": "uint256",
                    "name": "endingUnix",
                    "type": "uint256"
                },
                {
                    "internalType": "uint256",
                    "name": "startingUnix",
                    "type": "uint256"
                },
                {
                    "internalType": "uint256",
                    "name": "tokenId",
                    "type": "uint256"
                },
                {
                    "internalType": "bool",
                    "name": "cancelled",
                    "type": "bool"
                }
            ],
            "stateMutability": "view",
            "type": "function"
        },
        {
            "inputs": [
                {
                    "internalType": "uint256",
                    "name": "",
                    "type": "uint256"
                }
            ],
            "name": "basicSelling",
            "outputs": [
                {
                    "internalType": "address",
                    "name": "seller",
                    "type": "address"
                },
                {
                    "internalType": "uint256",
                    "name": "price",
                    "type": "uint256"
                },
                {
                    "internalType": "uint256",
                    "name": "listingUnix",
                    "type": "uint256"
                },
                {
                    "internalType": "uint256",
                    "name": "amount",
                    "type": "uint256"
                },
                {
                    "internalType": "uint256",
                    "name": "tokenId",
                    "type": "uint256"
                },
                {
                    "internalType": "bool",
                    "name": "cancelled",
                    "type": "bool"
                }
            ],
            "stateMutability": "view",
            "type": "function"
        },
        {
            "inputs": [
                {
                    "internalType": "uint256",
                    "name": "_listingId",
                    "type": "uint256"
                }
            ],
            "name": "bid",
            "outputs": [],
            "stateMutability": "payable",
            "type": "function"
        },
        {
            "inputs": [
                {
                    "internalType": "uint256",
                    "name": "",
                    "type": "uint256"
                }
            ],
            "name": "bids",
            "outputs": [
                {
                    "internalType": "uint256",
                    "name": "highestBid",
                    "type": "uint256"
                },
                {
                    "internalType": "address",
                    "name": "highestBidder",
                    "type": "address"
                },
                {
                    "internalType": "uint256",
                    "name": "totalBids",
                    "type": "uint256"
                },
                {
                    "internalType": "uint256",
                    "name": "tokenId",
                    "type": "uint256"
                }
            ],
            "stateMutability": "view",
            "type": "function"
        },
        {
            "inputs": [
                {
                    "internalType": "uint256",
                    "name": "_listingId",
                    "type": "uint256"
                }
            ],
            "name": "buyNft",
            "outputs": [],
            "stateMutability": "payable",
            "type": "function"
        },
        {
            "inputs": [
                {
                    "internalType": "uint256",
                    "name": "_listingId",
                    "type": "uint256"
                }
            ],
            "name": "cancelAuction",
            "outputs": [],
            "stateMutability": "payable",
            "type": "function"
        },
        {
            "inputs": [
                {
                    "internalType": "uint256",
                    "name": "_listingId",
                    "type": "uint256"
                }
            ],
            "name": "cancelSell",
            "outputs": [],
            "stateMutability": "payable",
            "type": "function"
        },
        {
            "inputs": [
                {
                    "internalType": "uint256",
                    "name": "_listingId",
                    "type": "uint256"
                },
                {
                    "internalType": "uint256",
                    "name": "_basePrice",
                    "type": "uint256"
                }
            ],
            "name": "changeAuctionBasePrice",
            "outputs": [],
            "stateMutability": "payable",
            "type": "function"
        },
        {
            "inputs": [
                {
                    "internalType": "uint256",
                    "name": "_listingId",
                    "type": "uint256"
                },
                {
                    "internalType": "uint256",
                    "name": "_price",
                    "type": "uint256"
                }
            ],
            "name": "changeSellPrice",
            "outputs": [],
            "stateMutability": "nonpayable",
            "type": "function"
        },
        {
            "inputs": [],
            "name": "claimBalance",
            "outputs": [],
            "stateMutability": "nonpayable",
            "type": "function"
        },
        {
            "inputs": [
                {
                    "internalType": "address",
                    "name": "",
                    "type": "address"
                }
            ],
            "name": "claimableAmount",
            "outputs": [
                {
                    "internalType": "uint256",
                    "name": "",
                    "type": "uint256"
                }
            ],
            "stateMutability": "view",
            "type": "function"
        },
        {
            "inputs": [
                {
                    "internalType": "uint256",
                    "name": "_listingId",
                    "type": "uint256"
                }
            ],
            "name": "concludeAuction",
            "outputs": [],
            "stateMutability": "nonpayable",
            "type": "function"
        },
        {
            "inputs": [
                {
                    "internalType": "uint256",
                    "name": "_basePrice",
                    "type": "uint256"
                },
                {
                    "internalType": "uint256",
                    "name": "_tokenId",
                    "type": "uint256"
                }
            ],
            "name": "createAuction",
            "outputs": [],
            "stateMutability": "nonpayable",
            "type": "function"
        },
        {
            "inputs": [],
            "name": "listingId",
            "outputs": [
                {
                    "internalType": "uint256",
                    "name": "",
                    "type": "uint256"
                }
            ],
            "stateMutability": "view",
            "type": "function"
        },
        {
            "inputs": [],
            "name": "nftContractAddress",
            "outputs": [
                {
                    "internalType": "address",
                    "name": "",
                    "type": "address"
                }
            ],
            "stateMutability": "view",
            "type": "function"
        },
        {
            "inputs": [
                {
                    "internalType": "address",
                    "name": "",
                    "type": "address"
                },
                {
                    "internalType": "address",
                    "name": "",
                    "type": "address"
                },
                {
                    "internalType": "uint256[]",
                    "name": "",
                    "type": "uint256[]"
                },
                {
                    "internalType": "uint256[]",
                    "name": "",
                    "type": "uint256[]"
                },
                {
                    "internalType": "bytes",
                    "name": "",
                    "type": "bytes"
                }
            ],
            "name": "onERC1155BatchReceived",
            "outputs": [
                {
                    "internalType": "bytes4",
                    "name": "",
                    "type": "bytes4"
                }
            ],
            "stateMutability": "nonpayable",
            "type": "function"
        },
        {
            "inputs": [
                {
                    "internalType": "address",
                    "name": "",
                    "type": "address"
                },
                {
                    "internalType": "address",
                    "name": "",
                    "type": "address"
                },
                {
                    "internalType": "uint256",
                    "name": "",
                    "type": "uint256"
                },
                {
                    "internalType": "uint256",
                    "name": "",
                    "type": "uint256"
                },
                {
                    "internalType": "bytes",
                    "name": "",
                    "type": "bytes"
                }
            ],
            "name": "onERC1155Received",
            "outputs": [
                {
                    "internalType": "bytes4",
                    "name": "",
                    "type": "bytes4"
                }
            ],
            "stateMutability": "nonpayable",
            "type": "function"
        },
        {
            "inputs": [
                {
                    "internalType": "address",
                    "name": "",
                    "type": "address"
                },
                {
                    "internalType": "address",
                    "name": "",
                    "type": "address"
                },
                {
                    "internalType": "uint256",
                    "name": "",
                    "type": "uint256"
                },
                {
                    "internalType": "bytes",
                    "name": "",
                    "type": "bytes"
                }
            ],
            "name": "onERC721Received",
            "outputs": [
                {
                    "internalType": "bytes4",
                    "name": "",
                    "type": "bytes4"
                }
            ],
            "stateMutability": "nonpayable",
            "type": "function"
        },
        {
            "inputs": [
                {
                    "internalType": "uint256",
                    "name": "_price",
                    "type": "uint256"
                },
                {
                    "internalType": "uint256",
                    "name": "_tokenId",
                    "type": "uint256"
                },
                {
                    "internalType": "uint256",
                    "name": "_amount",
                    "type": "uint256"
                }
            ],
            "name": "sellNft",
            "outputs": [],
            "stateMutability": "nonpayable",
            "type": "function"
        },
        {
            "inputs": [
                {
                    "internalType": "bytes4",
                    "name": "interfaceId",
                    "type": "bytes4"
                }
            ],
            "name": "supportsInterface",
            "outputs": [
                {
                    "internalType": "bool",
                    "name": "",
                    "type": "bool"
                }
            ],
            "stateMutability": "view",
            "type": "function"
        }
    ],
    "bytecode": "0x60806040523480156200001157600080fd5b506040516200482938038062004829833981810160405281019062000037919062000096565b80600460006101000a81548173ffffffffffffffffffffffffffffffffffffffff021916908373ffffffffffffffffffffffffffffffffffffffff1602179055505062000110565b6000815190506200009081620000f6565b92915050565b600060208284031215620000a957600080fd5b6000620000b9848285016200007f565b91505092915050565b6000620000cf82620000d6565b9050919050565b600073ffffffffffffffffffffffffffffffffffffffff82169050919050565b6200010181620000c2565b81146200010d57600080fd5b50565b61470980620001206000396000f3fe60806040526004361061011f5760003560e01c806389885049116100a0578063ab4d12e311610064578063ab4d12e3146103a8578063af0cc271146103ea578063b876130114610413578063bc197c811461043c578063f23a6e61146104795761011f565b806389885049146102d057806390420aee1461030d5780639405dfdd1461033657806396b5a75514610361578063aae282e11461037d5761011f565b806330509bca116100e757806330509bca146101ff57806337c6944d146102165780634423c5f114610232578063454a2ab314610272578063571a26a01461028e5761011f565b80630121683f1461012457806301ffc9a71461014d57806307c9cd451461018a578063150b7a02146101a6578063243adbdd146101e3575b600080fd5b34801561013057600080fd5b5061014b6004803603810190610146919061346c565b6104b6565b005b34801561015957600080fd5b50610174600480360381019061016f91906133b0565b6108bd565b60405161018191906139e7565b60405180910390f35b6101a4600480360381019061019f919061341a565b610937565b005b3480156101b257600080fd5b506101cd60048036038101906101c89190613224565b610c77565b6040516101da9190613a02565b60405180910390f35b6101fd60048036038101906101f8919061341a565b610c8b565b005b34801561020b57600080fd5b506102146112eb565b005b610230600480360381019061022b919061346c565b61142f565b005b34801561023e57600080fd5b506102596004803603810190610254919061341a565b611692565b6040516102699493929190613d1f565b60405180910390f35b61028c6004803603810190610287919061341a565b6116e2565b005b34801561029a57600080fd5b506102b560048036038101906102b0919061341a565b611bae565b6040516102c796959493929190613986565b60405180910390f35b3480156102dc57600080fd5b506102f760048036038101906102f2919061313c565b611c17565b6040516103049190613cbf565b60405180910390f35b34801561031957600080fd5b50610334600480360381019061032f919061346c565b611c2f565b005b34801561034257600080fd5b5061034b611f00565b6040516103589190613cbf565b60405180910390f35b61037b6004803603810190610376919061341a565b611f06565b005b34801561038957600080fd5b50610392612193565b60405161039f9190613892565b60405180910390f35b3480156103b457600080fd5b506103cf60048036038101906103ca919061341a565b6121b9565b6040516103e196959493929190613986565b60405180910390f35b3480156103f657600080fd5b50610411600480360381019061040c91906134a8565b612222565b005b34801561041f57600080fd5b5061043a6004803603810190610435919061341a565b612534565b005b34801561044857600080fd5b50610463600480360381019061045e9190613165565b612dad565b6040516104709190613a02565b60405180910390f35b34801561048557600080fd5b506104a0600480360381019061049b919061329f565b612dc2565b6040516104ad9190613a02565b60405180910390f35b6000600460009054906101000a900473ffffffffffffffffffffffffffffffffffffffff1673ffffffffffffffffffffffffffffffffffffffff1663bd85b039836040518263ffffffff1660e01b81526004016105139190613cbf565b60206040518083038186803b15801561052b57600080fd5b505afa15801561053f573d6000803e3d6000fd5b505050506040513d601f19601f820116820180604052508101906105639190613443565b9050600181146105a8576040517f08c379a000000000000000000000000000000000000000000000000000000000815260040161059f90613c3f565b60405180910390fd5b6000600460009054906101000a900473ffffffffffffffffffffffffffffffffffffffff1673ffffffffffffffffffffffffffffffffffffffff1662fdd58e33856040518363ffffffff1660e01b815260040161060692919061395d565b60206040518083038186803b15801561061e57600080fd5b505afa158015610632573d6000803e3d6000fd5b505050506040513d601f19601f820116820180604052508101906106569190613443565b90506001811461069b576040517f08c379a000000000000000000000000000000000000000000000000000000000815260040161069290613a3f565b60405180910390fd5b600084116106de576040517f08c379a00000000000000000000000000000000000000000000000000000000081526004016106d590613a5f565b60405180910390fd5b600460009054906101000a900473ffffffffffffffffffffffffffffffffffffffff1673ffffffffffffffffffffffffffffffffffffffff1663f242432a33308660016040518563ffffffff1660e01b815260040161074094939291906138ad565b600060405180830381600087803b15801561075a57600080fd5b505af115801561076e573d6000803e3d6000fd5b505050506040518060c001604052803373ffffffffffffffffffffffffffffffffffffffff168152602001858152602001600081526020014281526020018481526020016000151581525060016000600554815260200190815260200160002060008201518160000160006101000a81548173ffffffffffffffffffffffffffffffffffffffff021916908373ffffffffffffffffffffffffffffffffffffffff1602179055506020820151816001015560408201518160020155606082015181600301556080820151816004015560a08201518160050160006101000a81548160ff0219169083151502179055509050507f25fa87c7ce6f1874d9d70df6ebebabf36c8af873100126b8e11cbc02f243e3068433600554866040516108979493929190613d1f565b60405180910390a1600560008154809291906108b2906140ce565b919050555050505050565b60007f4e2312e0000000000000000000000000000000000000000000000000000000007bffffffffffffffffffffffffffffffffffffffffffffffffffffffff1916827bffffffffffffffffffffffffffffffffffffffffffffffffffffffff19161480610930575061092f82612dd7565b5b9050919050565b60008060008381526020019081526020016000206040518060c00160405290816000820160009054906101000a900473ffffffffffffffffffffffffffffffffffffffff1673ffffffffffffffffffffffffffffffffffffffff1673ffffffffffffffffffffffffffffffffffffffff168152602001600182015481526020016002820154815260200160038201548152602001600482015481526020016005820160009054906101000a900460ff16151515158152505090503373ffffffffffffffffffffffffffffffffffffffff16816000015173ffffffffffffffffffffffffffffffffffffffff1614610a63576040517f08c379a0000000000000000000000000000000000000000000000000000000008152600401610a5a90613adf565b60405180910390fd5b600015158160a00151151514610aae576040517f08c379a0000000000000000000000000000000000000000000000000000000008152600401610aa590613c9f565b60405180910390fd5b6000600460009054906101000a900473ffffffffffffffffffffffffffffffffffffffff1673ffffffffffffffffffffffffffffffffffffffff1662fdd58e3084608001516040518363ffffffff1660e01b8152600401610b1092919061395d565b60206040518083038186803b158015610b2857600080fd5b505afa158015610b3c573d6000803e3d6000fd5b505050506040513d601f19601f82011682018060405250810190610b609190613443565b905060008111610ba5576040517f08c379a0000000000000000000000000000000000000000000000000000000008152600401610b9c90613a7f565b60405180910390fd5b600160008085815260200190815260200160002060050160006101000a81548160ff021916908315150217905550600460009054906101000a900473ffffffffffffffffffffffffffffffffffffffff1673ffffffffffffffffffffffffffffffffffffffff1663f242432a308460000151856080015186606001516040518563ffffffff1660e01b8152600401610c409493929190613905565b600060405180830381600087803b158015610c5a57600080fd5b505af1158015610c6e573d6000803e3d6000fd5b50505050505050565b600063150b7a0260e01b9050949350505050565b60008060008381526020019081526020016000206040518060c00160405290816000820160009054906101000a900473ffffffffffffffffffffffffffffffffffffffff1673ffffffffffffffffffffffffffffffffffffffff1673ffffffffffffffffffffffffffffffffffffffff168152602001600182015481526020016002820154815260200160038201548152602001600482015481526020016005820160009054906101000a900460ff16151515158152505090506000816040015111610d8c576040517f08c379a0000000000000000000000000000000000000000000000000000000008152600401610d8390613bff565b60405180910390fd5b600015158160a00151151514610dd7576040517f08c379a0000000000000000000000000000000000000000000000000000000008152600401610dce90613c5f565b60405180910390fd5b80602001513414610e1d576040517f08c379a0000000000000000000000000000000000000000000000000000000008152600401610e1490613a9f565b60405180910390fd5b6000600460009054906101000a900473ffffffffffffffffffffffffffffffffffffffff1673ffffffffffffffffffffffffffffffffffffffff16637b9461fc83608001516040518263ffffffff1660e01b8152600401610e7e9190613cbf565b60006040518083038186803b158015610e9657600080fd5b505afa158015610eaa573d6000803e3d6000fd5b505050506040513d6000823e3d601f19601f82011682018060405250810190610ed391906133d9565b90506000600460009054906101000a900473ffffffffffffffffffffffffffffffffffffffff1673ffffffffffffffffffffffffffffffffffffffff1663979c4580836040518263ffffffff1660e01b8152600401610f329190613a1d565b60006040518083038186803b158015610f4a57600080fd5b505afa158015610f5e573d6000803e3d6000fd5b505050506040513d6000823e3d601f19601f82011682018060405250810190610f87919061332e565b90506000600460009054906101000a900473ffffffffffffffffffffffffffffffffffffffff1673ffffffffffffffffffffffffffffffffffffffff1663bf1dd785846040518263ffffffff1660e01b8152600401610fe69190613a1d565b60006040518083038186803b158015610ffe57600080fd5b505afa158015611012573d6000803e3d6000fd5b505050506040513d6000823e3d601f19601f8201168201806040525081019061103b919061336f565b9050600034905060005b835181101561118357600060648385848151811061108c577f4e487b7100000000000000000000000000000000000000000000000000000000600052603260045260246000fd5b602002602001015161109e9190613f47565b6110a89190613f16565b905080836110b69190613fa1565b925060008583815181106110f3577f4e487b7100000000000000000000000000000000000000000000000000000000600052603260045260246000fd5b602002602001015173ffffffffffffffffffffffffffffffffffffffff168260405161111e9061387d565b60006040518083038185875af1925050503d806000811461115b576040519150601f19603f3d011682016040523d82523d6000602084013e611160565b606091505b505090508061116e57600080fd5b5050808061117b906140ce565b915050611045565b506000856000015173ffffffffffffffffffffffffffffffffffffffff16826040516111ae9061387d565b60006040518083038185875af1925050503d80600081146111eb576040519150601f19603f3d011682016040523d82523d6000602084013e6111f0565b606091505b50509050806111fe57600080fd5b600460009054906101000a900473ffffffffffffffffffffffffffffffffffffffff1673ffffffffffffffffffffffffffffffffffffffff1663f242432a303389608001518a606001516040518563ffffffff1660e01b81526004016112679493929190613905565b600060405180830381600087803b15801561128157600080fd5b505af1158015611295573d6000803e3d6000fd5b505050507f88863d5e20f64464b554931394e2e4b6f09c10015147215bf26b3ba5070acebe866060015133886000015189608001516040516112da9493929190613cda565b60405180910390a150505050505050565b6000600360003373ffffffffffffffffffffffffffffffffffffffff1673ffffffffffffffffffffffffffffffffffffffff16815260200190815260200160002054905060008111611372576040517f08c379a000000000000000000000000000000000000000000000000000000000815260040161136990613b5f565b60405180910390fd5b600360003373ffffffffffffffffffffffffffffffffffffffff1673ffffffffffffffffffffffffffffffffffffffff1681526020019081526020016000206000905560003373ffffffffffffffffffffffffffffffffffffffff16826040516113db9061387d565b60006040518083038185875af1925050503d8060008114611418576040519150601f19603f3d011682016040523d82523d6000602084013e61141d565b606091505b505090508061142b57600080fd5b5050565b60008111611472576040517f08c379a000000000000000000000000000000000000000000000000000000000815260040161146990613a5f565b60405180910390fd5b6000600160008481526020019081526020016000206040518060c00160405290816000820160009054906101000a900473ffffffffffffffffffffffffffffffffffffffff1673ffffffffffffffffffffffffffffffffffffffff1673ffffffffffffffffffffffffffffffffffffffff168152602001600182015481526020016002820154815260200160038201548152602001600482015481526020016005820160009054906101000a900460ff16151515158152505090503373ffffffffffffffffffffffffffffffffffffffff16816000015173ffffffffffffffffffffffffffffffffffffffff161461159f576040517f08c379a000000000000000000000000000000000000000000000000000000000815260040161159690613adf565b60405180910390fd5b600015158160a001511515146115ea576040517f08c379a00000000000000000000000000000000000000000000000000000000081526004016115e190613c5f565b60405180910390fd5b6000816040015114611631576040517f08c379a000000000000000000000000000000000000000000000000000000000815260040161162890613aff565b60405180910390fd5b8160016000858152602001908152602001600020600101819055507f25fa87c7ce6f1874d9d70df6ebebabf36c8af873100126b8e11cbc02f243e30682338584608001516040516116859493929190613d1f565b60405180910390a1505050565b60026020528060005260406000206000915090508060000154908060010160009054906101000a900473ffffffffffffffffffffffffffffffffffffffff16908060020154908060030154905084565b6000600160008381526020019081526020016000206040518060c00160405290816000820160009054906101000a900473ffffffffffffffffffffffffffffffffffffffff1673ffffffffffffffffffffffffffffffffffffffff1673ffffffffffffffffffffffffffffffffffffffff168152602001600182015481526020016002820154815260200160038201548152602001600482015481526020016005820160009054906101000a900460ff161515151581525050905060008160600151116117e4576040517f08c379a00000000000000000000000000000000000000000000000000000000081526004016117db90613c1f565b60405180910390fd5b600015158160a0015115151461182f576040517f08c379a000000000000000000000000000000000000000000000000000000000815260040161182690613c5f565b60405180910390fd5b428160400151101580611846575060008160400151145b611885576040517f08c379a000000000000000000000000000000000000000000000000000000000815260040161187c90613b3f565b60405180910390fd5b6000816040015114156118bc5762015180426118a19190613ec0565b60016000848152602001908152602001600020600201819055505b4261038482604001516118cf9190613ec0565b10611904576103846001600084815260200190815260200160002060020160008282546118fc9190613ec0565b925050819055505b600060026000848152602001908152602001600020604051806080016040529081600082015481526020016001820160009054906101000a900473ffffffffffffffffffffffffffffffffffffffff1673ffffffffffffffffffffffffffffffffffffffff1673ffffffffffffffffffffffffffffffffffffffff1681526020016002820154815260200160038201548152505090506000816040015114156119f35781602001513410156119ee576040517f08c379a00000000000000000000000000000000000000000000000000000000081526004016119e590613b1f565b60405180910390fd5b611a3a565b80600001513411611a39576040517f08c379a0000000000000000000000000000000000000000000000000000000008152600401611a3090613bdf565b60405180910390fd5b5b806000015160036000836020015173ffffffffffffffffffffffffffffffffffffffff1673ffffffffffffffffffffffffffffffffffffffff16815260200190815260200160002081905550806040018051809190611a98906140ce565b8152505033816020019073ffffffffffffffffffffffffffffffffffffffff16908173ffffffffffffffffffffffffffffffffffffffff168152505034816000018181525050816080015181606001818152505080600260008581526020019081526020016000206000820151816000015560208201518160010160006101000a81548173ffffffffffffffffffffffffffffffffffffffff021916908373ffffffffffffffffffffffffffffffffffffffff16021790555060408201518160020155606082015181600301559050507f1bef37d3a105e12f10a2a477942ef25bfd5f84c8a19cd3b4d80a74184a557cd78260800151843433604051611ba19493929190613d64565b60405180910390a1505050565b60016020528060005260406000206000915090508060000160009054906101000a900473ffffffffffffffffffffffffffffffffffffffff16908060010154908060020154908060030154908060040154908060050160009054906101000a900460ff16905086565b60036020528060005260406000206000915090505481565b60008111611c72576040517f08c379a0000000000000000000000000000000000000000000000000000000008152600401611c6990613bbf565b60405180910390fd5b60008060008481526020019081526020016000206040518060c00160405290816000820160009054906101000a900473ffffffffffffffffffffffffffffffffffffffff1673ffffffffffffffffffffffffffffffffffffffff1673ffffffffffffffffffffffffffffffffffffffff168152602001600182015481526020016002820154815260200160038201548152602001600482015481526020016005820160009054906101000a900460ff16151515158152505090503373ffffffffffffffffffffffffffffffffffffffff16816000015173ffffffffffffffffffffffffffffffffffffffff1614611d9e576040517f08c379a0000000000000000000000000000000000000000000000000000000008152600401611d9590613adf565b60405180910390fd5b600015158160a00151151514611de9576040517f08c379a0000000000000000000000000000000000000000000000000000000008152600401611de090613c5f565b60405180910390fd5b6000600460009054906101000a900473ffffffffffffffffffffffffffffffffffffffff1673ffffffffffffffffffffffffffffffffffffffff1662fdd58e3084608001516040518363ffffffff1660e01b8152600401611e4b92919061395d565b60206040518083038186803b158015611e6357600080fd5b505afa158015611e77573d6000803e3d6000fd5b505050506040513d601f19601f82011682018060405250810190611e9b9190613443565b905060008111611ee0576040517f08c379a0000000000000000000000000000000000000000000000000000000008152600401611ed790613a7f565b60405180910390fd5b826000808681526020019081526020016000206001018190555050505050565b60055481565b6000600160008381526020019081526020016000206040518060c00160405290816000820160009054906101000a900473ffffffffffffffffffffffffffffffffffffffff1673ffffffffffffffffffffffffffffffffffffffff1673ffffffffffffffffffffffffffffffffffffffff168152602001600182015481526020016002820154815260200160038201548152602001600482015481526020016005820160009054906101000a900460ff16151515158152505090503373ffffffffffffffffffffffffffffffffffffffff16816000015173ffffffffffffffffffffffffffffffffffffffff1614612033576040517f08c379a000000000000000000000000000000000000000000000000000000000815260040161202a90613adf565b60405180910390fd5b600015158160a0015115151461207e576040517f08c379a000000000000000000000000000000000000000000000000000000000815260040161207590613c7f565b60405180910390fd5b60008160400151146120c5576040517f08c379a00000000000000000000000000000000000000000000000000000000081526004016120bc90613b7f565b60405180910390fd5b600180600084815260200190815260200160002060050160006101000a81548160ff021916908315150217905550600460009054906101000a900473ffffffffffffffffffffffffffffffffffffffff1673ffffffffffffffffffffffffffffffffffffffff1663f242432a308360000151846080015160016040518563ffffffff1660e01b815260040161215d94939291906138ad565b600060405180830381600087803b15801561217757600080fd5b505af115801561218b573d6000803e3d6000fd5b505050505050565b600460009054906101000a900473ffffffffffffffffffffffffffffffffffffffff1681565b60006020528060005260406000206000915090508060000160009054906101000a900473ffffffffffffffffffffffffffffffffffffffff16908060010154908060020154908060030154908060040154908060050160009054906101000a900460ff16905086565b6000600460009054906101000a900473ffffffffffffffffffffffffffffffffffffffff1673ffffffffffffffffffffffffffffffffffffffff1662fdd58e33856040518363ffffffff1660e01b815260040161228092919061395d565b60206040518083038186803b15801561229857600080fd5b505afa1580156122ac573d6000803e3d6000fd5b505050506040513d601f19601f820116820180604052508101906122d09190613443565b905060008111612315576040517f08c379a000000000000000000000000000000000000000000000000000000000815260040161230c90613a3f565b60405180910390fd5b60008411612358576040517f08c379a000000000000000000000000000000000000000000000000000000000815260040161234f90613bbf565b60405180910390fd5b600460009054906101000a900473ffffffffffffffffffffffffffffffffffffffff1673ffffffffffffffffffffffffffffffffffffffff1663f242432a333086866040518563ffffffff1660e01b81526004016123b99493929190613905565b600060405180830381600087803b1580156123d357600080fd5b505af11580156123e7573d6000803e3d6000fd5b505050506040518060c001604052803373ffffffffffffffffffffffffffffffffffffffff16815260200185815260200142815260200183815260200184815260200160001515815250600080600554815260200190815260200160002060008201518160000160006101000a81548173ffffffffffffffffffffffffffffffffffffffff021916908373ffffffffffffffffffffffffffffffffffffffff1602179055506020820151816001015560408201518160020155606082015181600301556080820151816004015560a08201518160050160006101000a81548160ff0219169083151502179055509050507f25fa87c7ce6f1874d9d70df6ebebabf36c8af873100126b8e11cbc02f243e30684336005548660405161250e9493929190613d1f565b60405180910390a160056000815480929190612529906140ce565b919050555050505050565b600060026000838152602001908152602001600020604051806080016040529081600082015481526020016001820160009054906101000a900473ffffffffffffffffffffffffffffffffffffffff1673ffffffffffffffffffffffffffffffffffffffff1673ffffffffffffffffffffffffffffffffffffffff1681526020016002820154815260200160038201548152505090506000600160008481526020019081526020016000206040518060c00160405290816000820160009054906101000a900473ffffffffffffffffffffffffffffffffffffffff1673ffffffffffffffffffffffffffffffffffffffff1673ffffffffffffffffffffffffffffffffffffffff168152602001600182015481526020016002820154815260200160038201548152602001600482015481526020016005820160009054906101000a900460ff1615151515815250509050806000015173ffffffffffffffffffffffffffffffffffffffff163373ffffffffffffffffffffffffffffffffffffffff1614806126f25750816020015173ffffffffffffffffffffffffffffffffffffffff163373ffffffffffffffffffffffffffffffffffffffff16145b612731576040517f08c379a000000000000000000000000000000000000000000000000000000000815260040161272890613abf565b60405180910390fd5b6000816060015111612778576040517f08c379a000000000000000000000000000000000000000000000000000000000815260040161276f90613c1f565b60405180910390fd5b600015158160a001511515146127c3576040517f08c379a00000000000000000000000000000000000000000000000000000000081526004016127ba90613c5f565b60405180910390fd5b4281604001511080156127db57506000816040015114155b61281a576040517f08c379a000000000000000000000000000000000000000000000000000000000815260040161281190613b9f565b60405180910390fd5b60008260000151148015612832575042816040015111155b156128d857600460009054906101000a900473ffffffffffffffffffffffffffffffffffffffff1673ffffffffffffffffffffffffffffffffffffffff1663f242432a308360000151846080015160016040518563ffffffff1660e01b81526004016128a194939291906138ad565b600060405180830381600087803b1580156128bb57600080fd5b505af11580156128cf573d6000803e3d6000fd5b50505050612da8565b6000600460009054906101000a900473ffffffffffffffffffffffffffffffffffffffff1673ffffffffffffffffffffffffffffffffffffffff16637b9461fc83608001516040518263ffffffff1660e01b81526004016129399190613cbf565b60006040518083038186803b15801561295157600080fd5b505afa158015612965573d6000803e3d6000fd5b505050506040513d6000823e3d601f19601f8201168201806040525081019061298e91906133d9565b90506000600460009054906101000a900473ffffffffffffffffffffffffffffffffffffffff1673ffffffffffffffffffffffffffffffffffffffff1663979c4580836040518263ffffffff1660e01b81526004016129ed9190613a1d565b60006040518083038186803b158015612a0557600080fd5b505afa158015612a19573d6000803e3d6000fd5b505050506040513d6000823e3d601f19601f82011682018060405250810190612a42919061332e565b90506000600460009054906101000a900473ffffffffffffffffffffffffffffffffffffffff1673ffffffffffffffffffffffffffffffffffffffff1663bf1dd785846040518263ffffffff1660e01b8152600401612aa19190613a1d565b60006040518083038186803b158015612ab957600080fd5b505afa158015612acd573d6000803e3d6000fd5b505050506040513d6000823e3d601f19601f82011682018060405250810190612af6919061336f565b905060008560000151905060005b8351811015612c42576000606483858481518110612b4b577f4e487b7100000000000000000000000000000000000000000000000000000000600052603260045260246000fd5b6020026020010151612b5d9190613f47565b612b679190613f16565b90508083612b759190613fa1565b92506000858381518110612bb2577f4e487b7100000000000000000000000000000000000000000000000000000000600052603260045260246000fd5b602002602001015173ffffffffffffffffffffffffffffffffffffffff1682604051612bdd9061387d565b60006040518083038185875af1925050503d8060008114612c1a576040519150601f19603f3d011682016040523d82523d6000602084013e612c1f565b606091505b5050905080612c2d57600080fd5b50508080612c3a906140ce565b915050612b04565b506000856000015173ffffffffffffffffffffffffffffffffffffffff1682604051612c6d9061387d565b60006040518083038185875af1925050503d8060008114612caa576040519150601f19603f3d011682016040523d82523d6000602084013e612caf565b606091505b5050905080612cbd57600080fd5b600460009054906101000a900473ffffffffffffffffffffffffffffffffffffffff1673ffffffffffffffffffffffffffffffffffffffff1663f242432a308960200151896080015160016040518563ffffffff1660e01b8152600401612d2794939291906138ad565b600060405180830381600087803b158015612d4157600080fd5b505af1158015612d55573d6000803e3d6000fd5b505050507f88863d5e20f64464b554931394e2e4b6f09c10015147215bf26b3ba5070acebe82886020015188600001518960800151604051612d9a9493929190613cda565b60405180910390a150505050505b505050565b600063bc197c8160e01b905095945050505050565b600063f23a6e6160e01b905095945050505050565b60007f01ffc9a7000000000000000000000000000000000000000000000000000000007bffffffffffffffffffffffffffffffffffffffffffffffffffffffff1916827bffffffffffffffffffffffffffffffffffffffffffffffffffffffff1916149050919050565b6000612e54612e4f84613dce565b613da9565b90508083825260208201905082856020860282011115612e7357600080fd5b60005b85811015612ea35781612e898882613016565b845260208401935060208301925050600181019050612e76565b5050509392505050565b6000612ec0612ebb84613dfa565b613da9565b90508083825260208201905082856020860282011115612edf57600080fd5b60005b85811015612f0f5781612ef58882613112565b845260208401935060208301925050600181019050612ee2565b5050509392505050565b6000612f2c612f2784613dfa565b613da9565b90508083825260208201905082856020860282011115612f4b57600080fd5b60005b85811015612f7b5781612f618882613127565b845260208401935060208301925050600181019050612f4e565b5050509392505050565b6000612f98612f9384613e26565b613da9565b905082815260208101848484011115612fb057600080fd5b612fbb84828561405b565b509392505050565b6000612fd6612fd184613e57565b613da9565b905082815260208101848484011115612fee57600080fd5b612ff984828561406a565b509392505050565b6000813590506130108161468e565b92915050565b6000815190506130258161468e565b92915050565b600082601f83011261303c57600080fd5b815161304c848260208601612e41565b91505092915050565b600082601f83011261306657600080fd5b8135613076848260208601612ead565b91505092915050565b600082601f83011261309057600080fd5b81516130a0848260208601612f19565b91505092915050565b6000813590506130b8816146a5565b92915050565b600082601f8301126130cf57600080fd5b81356130df848260208601612f85565b91505092915050565b600082601f8301126130f957600080fd5b8151613109848260208601612fc3565b91505092915050565b600081359050613121816146bc565b92915050565b600081519050613136816146bc565b92915050565b60006020828403121561314e57600080fd5b600061315c84828501613001565b91505092915050565b600080600080600060a0868803121561317d57600080fd5b600061318b88828901613001565b955050602061319c88828901613001565b945050604086013567ffffffffffffffff8111156131b957600080fd5b6131c588828901613055565b935050606086013567ffffffffffffffff8111156131e257600080fd5b6131ee88828901613055565b925050608086013567ffffffffffffffff81111561320b57600080fd5b613217888289016130be565b9150509295509295909350565b6000806000806080858703121561323a57600080fd5b600061324887828801613001565b945050602061325987828801613001565b935050604061326a87828801613112565b925050606085013567ffffffffffffffff81111561328757600080fd5b613293878288016130be565b91505092959194509250565b600080600080600060a086880312156132b757600080fd5b60006132c588828901613001565b95505060206132d688828901613001565b94505060406132e788828901613112565b93505060606132f888828901613112565b925050608086013567ffffffffffffffff81111561331557600080fd5b613321888289016130be565b9150509295509295909350565b60006020828403121561334057600080fd5b600082015167ffffffffffffffff81111561335a57600080fd5b6133668482850161302b565b91505092915050565b60006020828403121561338157600080fd5b600082015167ffffffffffffffff81111561339b57600080fd5b6133a78482850161307f565b91505092915050565b6000602082840312156133c257600080fd5b60006133d0848285016130a9565b91505092915050565b6000602082840312156133eb57600080fd5b600082015167ffffffffffffffff81111561340557600080fd5b613411848285016130e8565b91505092915050565b60006020828403121561342c57600080fd5b600061343a84828501613112565b91505092915050565b60006020828403121561345557600080fd5b600061346384828501613127565b91505092915050565b6000806040838503121561347f57600080fd5b600061348d85828601613112565b925050602061349e85828601613112565b9150509250929050565b6000806000606084860312156134bd57600080fd5b60006134cb86828701613112565b93505060206134dc86828701613112565b92505060406134ed86828701613112565b9150509250925092565b61350081613fd5565b82525050565b61350f81613fe7565b82525050565b61351e81613ff3565b82525050565b61352d81614049565b82525050565b600061353e82613e88565b6135488185613eaf565b935061355881856020860161406a565b613561816141a4565b840191505092915050565b6000613579601983613eaf565b9150613584826141b5565b602082019050919050565b600061359c601d83613eaf565b91506135a7826141de565b602082019050919050565b60006135bf602083613eaf565b91506135ca82614207565b602082019050919050565b60006135e2603d83613eaf565b91506135ed82614230565b604082019050919050565b6000613605602d83613eaf565b91506136108261427f565b604082019050919050565b6000613628601b83613eaf565b9150613633826142ce565b602082019050919050565b600061364b602d83613eaf565b9150613656826142f7565b604082019050919050565b600061366e603a83613eaf565b915061367982614346565b604082019050919050565b6000613691601683613eaf565b915061369c82614395565b602082019050919050565b60006136b4602883613eaf565b91506136bf826143be565b604082019050919050565b60006136d7603883613eaf565b91506136e28261440d565b604082019050919050565b60006136fa602183613eaf565b91506137058261445c565b604082019050919050565b600061371d601883613eaf565b9150613728826144ab565b602082019050919050565b6000613740603083613eaf565b915061374b826144d4565b604082019050919050565b6000613763602383613eaf565b915061376e82614523565b604082019050919050565b6000613786601c83613eaf565b915061379182614572565b602082019050919050565b60006137a9600083613e93565b91506137b48261459b565b600082019050919050565b60006137cc600083613ea4565b91506137d78261459b565b600082019050919050565b60006137ef601e83613eaf565b91506137fa8261459e565b602082019050919050565b6000613812601f83613eaf565b915061381d826145c7565b602082019050919050565b6000613835602783613eaf565b9150613840826145f0565b604082019050919050565b6000613858602783613eaf565b91506138638261463f565b604082019050919050565b6138778161403f565b82525050565b6000613888826137bf565b9150819050919050565b60006020820190506138a760008301846134f7565b92915050565b600060a0820190506138c260008301876134f7565b6138cf60208301866134f7565b6138dc604083018561386e565b6138e96060830184613524565b81810360808301526138fa8161379c565b905095945050505050565b600060a08201905061391a60008301876134f7565b61392760208301866134f7565b613934604083018561386e565b613941606083018461386e565b81810360808301526139528161379c565b905095945050505050565b600060408201905061397260008301856134f7565b61397f602083018461386e565b9392505050565b600060c08201905061399b60008301896134f7565b6139a8602083018861386e565b6139b5604083018761386e565b6139c2606083018661386e565b6139cf608083018561386e565b6139dc60a0830184613506565b979650505050505050565b60006020820190506139fc6000830184613506565b92915050565b6000602082019050613a176000830184613515565b92915050565b60006020820190508181036000830152613a378184613533565b905092915050565b60006020820190508181036000830152613a588161356c565b9050919050565b60006020820190508181036000830152613a788161358f565b9050919050565b60006020820190508181036000830152613a98816135b2565b9050919050565b60006020820190508181036000830152613ab8816135d5565b9050919050565b60006020820190508181036000830152613ad8816135f8565b9050919050565b60006020820190508181036000830152613af88161361b565b9050919050565b60006020820190508181036000830152613b188161363e565b9050919050565b60006020820190508181036000830152613b3881613661565b9050919050565b60006020820190508181036000830152613b5881613684565b9050919050565b60006020820190508181036000830152613b78816136a7565b9050919050565b60006020820190508181036000830152613b98816136ca565b9050919050565b60006020820190508181036000830152613bb8816136ed565b9050919050565b60006020820190508181036000830152613bd881613710565b9050919050565b60006020820190508181036000830152613bf881613733565b9050919050565b60006020820190508181036000830152613c1881613756565b9050919050565b60006020820190508181036000830152613c3881613779565b9050919050565b60006020820190508181036000830152613c58816137e2565b9050919050565b60006020820190508181036000830152613c7881613805565b9050919050565b60006020820190508181036000830152613c9881613828565b9050919050565b60006020820190508181036000830152613cb88161384b565b9050919050565b6000602082019050613cd4600083018461386e565b92915050565b6000608082019050613cef600083018761386e565b613cfc60208301866134f7565b613d0960408301856134f7565b613d16606083018461386e565b95945050505050565b6000608082019050613d34600083018761386e565b613d4160208301866134f7565b613d4e604083018561386e565b613d5b606083018461386e565b95945050505050565b6000608082019050613d79600083018761386e565b613d86602083018661386e565b613d93604083018561386e565b613da060608301846134f7565b95945050505050565b6000613db3613dc4565b9050613dbf828261409d565b919050565b6000604051905090565b600067ffffffffffffffff821115613de957613de8614175565b5b602082029050602081019050919050565b600067ffffffffffffffff821115613e1557613e14614175565b5b602082029050602081019050919050565b600067ffffffffffffffff821115613e4157613e40614175565b5b613e4a826141a4565b9050602081019050919050565b600067ffffffffffffffff821115613e7257613e71614175565b5b613e7b826141a4565b9050602081019050919050565b600081519050919050565b600082825260208201905092915050565b600081905092915050565b600082825260208201905092915050565b6000613ecb8261403f565b9150613ed68361403f565b9250827fffffffffffffffffffffffffffffffffffffffffffffffffffffffffffffffff03821115613f0b57613f0a614117565b5b828201905092915050565b6000613f218261403f565b9150613f2c8361403f565b925082613f3c57613f3b614146565b5b828204905092915050565b6000613f528261403f565b9150613f5d8361403f565b9250817fffffffffffffffffffffffffffffffffffffffffffffffffffffffffffffffff0483118215151615613f9657613f95614117565b5b828202905092915050565b6000613fac8261403f565b9150613fb78361403f565b925082821015613fca57613fc9614117565b5b828203905092915050565b6000613fe08261401f565b9050919050565b60008115159050919050565b60007fffffffff0000000000000000000000000000000000000000000000000000000082169050919050565b600073ffffffffffffffffffffffffffffffffffffffff82169050919050565b6000819050919050565b60006140548261403f565b9050919050565b82818337600083830152505050565b60005b8381101561408857808201518184015260208101905061406d565b83811115614097576000848401525b50505050565b6140a6826141a4565b810181811067ffffffffffffffff821117156140c5576140c4614175565b5b80604052505050565b60006140d98261403f565b91507fffffffffffffffffffffffffffffffffffffffffffffffffffffffffffffffff82141561410c5761410b614117565b5b600182019050919050565b7f4e487b7100000000000000000000000000000000000000000000000000000000600052601160045260246000fd5b7f4e487b7100000000000000000000000000000000000000000000000000000000600052601260045260246000fd5b7f4e487b7100000000000000000000000000000000000000000000000000000000600052604160045260246000fd5b6000601f19601f8301169050919050565b7f596f7520646f206e6f74206f776e207468697320746f6b656e00000000000000600082015250565b7f426173652070726963652063616e6e6f742062652073657420746f2030000000600082015250565b7f5468697320746f6b656e2068617320616c7265616479206265656e20736f6c64600082015250565b7f4c697374656420707269636520616e642074686520616d6f756e742073656e7460008201527f20746f2074686520636f6e747261637420646f206e6f74206d61746368000000602082015250565b7f596f7520617265206e6f7420617574686f72697a656420746f20706572666f7260008201527f6d207468697320616374696f6e00000000000000000000000000000000000000602082015250565b7f596f7520646f206e6f74206f776e2074686973206c697374696e670000000000600082015250565b7f4261736520707269636520666f7220746869732061756374696f6e2063616e6e60008201527f6f74206265206368616e67656400000000000000000000000000000000000000602082015250565b7f596f7572206269642073686f756c642062652067726561746572207468616e2060008201527f6f7220657175616c20746f207468652062617365207072696365000000000000602082015250565b7f546869732061756374696f6e2068617320656e64656400000000000000000000600082015250565b7f596f7520646f206e6f74206861766520616e7920616d6f756e7420746f20626560008201527f20636c61696d6564000000000000000000000000000000000000000000000000602082015250565b7f546869732061756374696f6e2068617320616c7265616479207374617274656460008201527f20616e642063616e6e6f742062652063616e63656c6c65640000000000000000602082015250565b7f546869732061756374696f6e206973207374696c6c20696e2070726f6772657360008201527f7300000000000000000000000000000000000000000000000000000000000000602082015250565b7f50726963652063616e6e6f742062652073657420746f20300000000000000000600082015250565b7f596f7572206269642073686f756c642062652067726561746572207468616e2060008201527f7468652070726576696f75732062696400000000000000000000000000000000602082015250565b7f5468697320746f6b656e206973206e6f74206c697374656420746f206265207360008201527f6f6c640000000000000000000000000000000000000000000000000000000000602082015250565b7f5468697320746f6b656e206973206e6f74206f6e2061756374696f6e00000000600082015250565b50565b7f5468697320746f6b656e2063616e6e6f742062652061756374696f6e65640000600082015250565b7f54686973206c697374696e6720686173206265656e2063616e63656c6c656400600082015250565b7f546869732061756374696f6e2068617320616c7265616479206265656e20636160008201527f6e63656c6c656400000000000000000000000000000000000000000000000000602082015250565b7f54686973206c697374696e672068617320616c7265616479206265656e20636160008201527f6e63656c6c656400000000000000000000000000000000000000000000000000602082015250565b61469781613fd5565b81146146a257600080fd5b50565b6146ae81613ff3565b81146146b957600080fd5b50565b6146c58161403f565b81146146d057600080fd5b5056fea2646970667358221220f74d115b285413ff7e7e8b387a2edf538939fd9ae50c14a974706b60280e03d264736f6c63430008040033",
    "linkReferences": {},
    "deployedLinkReferences": {},
    "contractAddress": "0x31104D60FBBEA649763927bEafaea7dD02F4183e"
}