{
    "_format": "hh-sol-artifact-1",
    "contractName": "Marketplace",
    "sourceName": "contracts/marketplace.sol",
    "abi": [
        {
            "inputs": [
                {
                    "internalType": "address",
                    "name": "_nftContractAddress",
                    "type": "address"
                }
            ],
            "stateMutability": "nonpayable",
            "type": "constructor"
        },
        {
            "anonymous": false,
            "inputs": [
                {
                    "indexed": false,
                    "internalType": "uint256",
                    "name": "tokenId",
                    "type": "uint256"
                },
                {
                    "indexed": false,
                    "internalType": "uint256",
                    "name": "listingId",
                    "type": "uint256"
                },
                {
                    "indexed": false,
                    "internalType": "uint256",
                    "name": "bidPrice",
                    "type": "uint256"
                },
                {
                    "indexed": false,
                    "internalType": "address",
                    "name": "bidder",
                    "type": "address"
                }
            ],
            "name": "Bid",
            "type": "event"
        },
        {
            "anonymous": false,
            "inputs": [
                {
                    "indexed": false,
                    "internalType": "uint256",
                    "name": "price",
                    "type": "uint256"
                },
                {
                    "indexed": false,
                    "internalType": "address",
                    "name": "from",
                    "type": "address"
                },
                {
                    "indexed": false,
                    "internalType": "uint256",
                    "name": "listingId",
                    "type": "uint256"
                },
                {
                    "indexed": false,
                    "internalType": "uint256",
                    "name": "tokenId",
                    "type": "uint256"
                }
            ],
            "name": "List",
            "type": "event"
        },
        {
            "anonymous": false,
            "inputs": [
                {
                    "indexed": false,
                    "internalType": "uint256",
                    "name": "price",
                    "type": "uint256"
                },
                {
                    "indexed": false,
                    "internalType": "address",
                    "name": "to",
                    "type": "address"
                },
                {
                    "indexed": false,
                    "internalType": "address",
                    "name": "from",
                    "type": "address"
                },
                {
                    "indexed": false,
                    "internalType": "uint256",
                    "name": "tokenId",
                    "type": "uint256"
                }
            ],
            "name": "Sale",
            "type": "event"
        },
        {
            "inputs": [
                {
                    "internalType": "uint256",
                    "name": "",
                    "type": "uint256"
                }
            ],
            "name": "auctions",
            "outputs": [
                {
                    "internalType": "address",
                    "name": "seller",
                    "type": "address"
                },
                {
                    "internalType": "uint256",
                    "name": "basePrice",
                    "type": "uint256"
                },
                {
                    "internalType": "uint256",
                    "name": "endingUnix",
                    "type": "uint256"
                },
                {
                    "internalType": "uint256",
                    "name": "startingUnix",
                    "type": "uint256"
                },
                {
                    "internalType": "uint256",
                    "name": "tokenId",
                    "type": "uint256"
                },
                {
                    "internalType": "bool",
                    "name": "cancelled",
                    "type": "bool"
                }
            ],
            "stateMutability": "view",
            "type": "function"
        },
        {
            "inputs": [
                {
                    "internalType": "uint256",
                    "name": "",
                    "type": "uint256"
                }
            ],
            "name": "basicSelling",
            "outputs": [
                {
                    "internalType": "address",
                    "name": "seller",
                    "type": "address"
                },
                {
                    "internalType": "uint256",
                    "name": "price",
                    "type": "uint256"
                },
                {
                    "internalType": "uint256",
                    "name": "listingUnix",
                    "type": "uint256"
                },
                {
                    "internalType": "uint256",
                    "name": "amount",
                    "type": "uint256"
                },
                {
                    "internalType": "uint256",
                    "name": "tokenId",
                    "type": "uint256"
                },
                {
                    "internalType": "bool",
                    "name": "cancelled",
                    "type": "bool"
                },
                {
                    "internalType": "uint256",
                    "name": "soldAmount",
                    "type": "uint256"
                }
            ],
            "stateMutability": "view",
            "type": "function"
        },
        {
            "inputs": [
                {
                    "internalType": "uint256",
                    "name": "_listingId",
                    "type": "uint256"
                }
            ],
            "name": "bid",
            "outputs": [],
            "stateMutability": "payable",
            "type": "function"
        },
        {
            "inputs": [
                {
                    "internalType": "uint256",
                    "name": "",
                    "type": "uint256"
                }
            ],
            "name": "bids",
            "outputs": [
                {
                    "internalType": "uint256",
                    "name": "highestBid",
                    "type": "uint256"
                },
                {
                    "internalType": "address",
                    "name": "highestBidder",
                    "type": "address"
                },
                {
                    "internalType": "uint256",
                    "name": "totalBids",
                    "type": "uint256"
                },
                {
                    "internalType": "uint256",
                    "name": "tokenId",
                    "type": "uint256"
                }
            ],
            "stateMutability": "view",
            "type": "function"
        },
        {
            "inputs": [
                {
                    "internalType": "uint256",
                    "name": "_listingId",
                    "type": "uint256"
                },
                {
                    "internalType": "uint256",
                    "name": "_amount",
                    "type": "uint256"
                }
            ],
            "name": "buyNft",
            "outputs": [],
            "stateMutability": "payable",
            "type": "function"
        },
        {
            "inputs": [
                {
                    "internalType": "uint256",
                    "name": "_listingId",
                    "type": "uint256"
                }
            ],
            "name": "cancelAuction",
            "outputs": [],
            "stateMutability": "payable",
            "type": "function"
        },
        {
            "inputs": [
                {
                    "internalType": "uint256",
                    "name": "_listingId",
                    "type": "uint256"
                }
            ],
            "name": "cancelSell",
            "outputs": [],
            "stateMutability": "payable",
            "type": "function"
        },
        {
            "inputs": [
                {
                    "internalType": "uint256",
                    "name": "_listingId",
                    "type": "uint256"
                },
                {
                    "internalType": "uint256",
                    "name": "_basePrice",
                    "type": "uint256"
                }
            ],
            "name": "changeAuctionBasePrice",
            "outputs": [],
            "stateMutability": "payable",
            "type": "function"
        },
        {
            "inputs": [
                {
                    "internalType": "uint256",
                    "name": "_listingId",
                    "type": "uint256"
                },
                {
                    "internalType": "uint256",
                    "name": "_price",
                    "type": "uint256"
                }
            ],
            "name": "changeSellPrice",
            "outputs": [],
            "stateMutability": "nonpayable",
            "type": "function"
        },
        {
            "inputs": [],
            "name": "claimBalance",
            "outputs": [],
            "stateMutability": "nonpayable",
            "type": "function"
        },
        {
            "inputs": [
                {
                    "internalType": "address",
                    "name": "",
                    "type": "address"
                }
            ],
            "name": "claimableAmount",
            "outputs": [
                {
                    "internalType": "uint256",
                    "name": "",
                    "type": "uint256"
                }
            ],
            "stateMutability": "view",
            "type": "function"
        },
        {
            "inputs": [
                {
                    "internalType": "uint256",
                    "name": "_listingId",
                    "type": "uint256"
                }
            ],
            "name": "concludeAuction",
            "outputs": [],
            "stateMutability": "nonpayable",
            "type": "function"
        },
        {
            "inputs": [
                {
                    "internalType": "uint256",
                    "name": "_basePrice",
                    "type": "uint256"
                },
                {
                    "internalType": "uint256",
                    "name": "_tokenId",
                    "type": "uint256"
                }
            ],
            "name": "createAuction",
            "outputs": [],
            "stateMutability": "nonpayable",
            "type": "function"
        },
        {
            "inputs": [],
            "name": "listingId",
            "outputs": [
                {
                    "internalType": "uint256",
                    "name": "",
                    "type": "uint256"
                }
            ],
            "stateMutability": "view",
            "type": "function"
        },
        {
            "inputs": [],
            "name": "nftContractAddress",
            "outputs": [
                {
                    "internalType": "address",
                    "name": "",
                    "type": "address"
                }
            ],
            "stateMutability": "view",
            "type": "function"
        },
        {
            "inputs": [
                {
                    "internalType": "address",
                    "name": "",
                    "type": "address"
                },
                {
                    "internalType": "address",
                    "name": "",
                    "type": "address"
                },
                {
                    "internalType": "uint256[]",
                    "name": "",
                    "type": "uint256[]"
                },
                {
                    "internalType": "uint256[]",
                    "name": "",
                    "type": "uint256[]"
                },
                {
                    "internalType": "bytes",
                    "name": "",
                    "type": "bytes"
                }
            ],
            "name": "onERC1155BatchReceived",
            "outputs": [
                {
                    "internalType": "bytes4",
                    "name": "",
                    "type": "bytes4"
                }
            ],
            "stateMutability": "nonpayable",
            "type": "function"
        },
        {
            "inputs": [
                {
                    "internalType": "address",
                    "name": "",
                    "type": "address"
                },
                {
                    "internalType": "address",
                    "name": "",
                    "type": "address"
                },
                {
                    "internalType": "uint256",
                    "name": "",
                    "type": "uint256"
                },
                {
                    "internalType": "uint256",
                    "name": "",
                    "type": "uint256"
                },
                {
                    "internalType": "bytes",
                    "name": "",
                    "type": "bytes"
                }
            ],
            "name": "onERC1155Received",
            "outputs": [
                {
                    "internalType": "bytes4",
                    "name": "",
                    "type": "bytes4"
                }
            ],
            "stateMutability": "nonpayable",
            "type": "function"
        },
        {
            "inputs": [
                {
                    "internalType": "address",
                    "name": "",
                    "type": "address"
                },
                {
                    "internalType": "address",
                    "name": "",
                    "type": "address"
                },
                {
                    "internalType": "uint256",
                    "name": "",
                    "type": "uint256"
                },
                {
                    "internalType": "bytes",
                    "name": "",
                    "type": "bytes"
                }
            ],
            "name": "onERC721Received",
            "outputs": [
                {
                    "internalType": "bytes4",
                    "name": "",
                    "type": "bytes4"
                }
            ],
            "stateMutability": "nonpayable",
            "type": "function"
        },
        {
            "inputs": [
                {
                    "internalType": "uint256",
                    "name": "_price",
                    "type": "uint256"
                },
                {
                    "internalType": "uint256",
                    "name": "_tokenId",
                    "type": "uint256"
                },
                {
                    "internalType": "uint256",
                    "name": "_amount",
                    "type": "uint256"
                }
            ],
            "name": "sellNft",
            "outputs": [],
            "stateMutability": "nonpayable",
            "type": "function"
        },
        {
            "inputs": [
                {
                    "internalType": "bytes4",
                    "name": "interfaceId",
                    "type": "bytes4"
                }
            ],
            "name": "supportsInterface",
            "outputs": [
                {
                    "internalType": "bool",
                    "name": "",
                    "type": "bool"
                }
            ],
            "stateMutability": "view",
            "type": "function"
        }
    ],
    "bytecode": "0x60806040523480156200001157600080fd5b50604051620049f9380380620049f9833981810160405281019062000037919062000096565b80600460006101000a81548173ffffffffffffffffffffffffffffffffffffffff021916908373ffffffffffffffffffffffffffffffffffffffff1602179055505062000110565b6000815190506200009081620000f6565b92915050565b600060208284031215620000a957600080fd5b6000620000b9848285016200007f565b91505092915050565b6000620000cf82620000d6565b9050919050565b600073ffffffffffffffffffffffffffffffffffffffff82169050919050565b6200010181620000c2565b81146200010d57600080fd5b50565b6148d980620001206000396000f3fe60806040526004361061011f5760003560e01c806389885049116100a0578063ab4d12e311610064578063ab4d12e3146103a8578063af0cc271146103eb578063b876130114610414578063bc197c811461043d578063f23a6e611461047a5761011f565b806389885049146102d057806390420aee1461030d5780639405dfdd1461033657806396b5a75514610361578063aae282e11461037d5761011f565b806337c6944d116100e757806337c6944d146101fa5780634423c5f114610216578063454a2ab314610256578063556f808414610272578063571a26a01461028e5761011f565b80630121683f1461012457806301ffc9a71461014d57806307c9cd451461018a578063150b7a02146101a657806330509bca146101e3575b600080fd5b34801561013057600080fd5b5061014b6004803603810190610146919061353b565b6104b7565b005b34801561015957600080fd5b50610174600480360381019061016f919061347f565b6108be565b6040516101819190613b48565b60405180910390f35b6101a4600480360381019061019f91906134e9565b610938565b005b3480156101b257600080fd5b506101cd60048036038101906101c891906132f3565b610c91565b6040516101da9190613b63565b60405180910390f35b3480156101ef57600080fd5b506101f8610ca5565b005b610214600480360381019061020f919061353b565b610de9565b005b34801561022257600080fd5b5061023d600480360381019061023891906134e9565b61104c565b60405161024d9493929190613ea0565b60405180910390f35b610270600480360381019061026b91906134e9565b61109c565b005b61028c6004803603810190610287919061353b565b611568565b005b34801561029a57600080fd5b506102b560048036038101906102b091906134e9565b611c5c565b6040516102c796959493929190613a78565b60405180910390f35b3480156102dc57600080fd5b506102f760048036038101906102f2919061320b565b611cc5565b6040516103049190613e40565b60405180910390f35b34801561031957600080fd5b50610334600480360381019061032f919061353b565b611cdd565b005b34801561034257600080fd5b5061034b611fb8565b6040516103589190613e40565b60405180910390f35b61037b600480360381019061037691906134e9565b611fbe565b005b34801561038957600080fd5b5061039261224b565b60405161039f9190613984565b60405180910390f35b3480156103b457600080fd5b506103cf60048036038101906103ca91906134e9565b612271565b6040516103e29796959493929190613ad9565b60405180910390f35b3480156103f757600080fd5b50610412600480360381019061040d9190613577565b6122e0565b005b34801561042057600080fd5b5061043b600480360381019061043691906134e9565b612603565b005b34801561044957600080fd5b50610464600480360381019061045f9190613234565b612e7c565b6040516104719190613b63565b60405180910390f35b34801561048657600080fd5b506104a1600480360381019061049c919061336e565b612e91565b6040516104ae9190613b63565b60405180910390f35b6000600460009054906101000a900473ffffffffffffffffffffffffffffffffffffffff1673ffffffffffffffffffffffffffffffffffffffff1663bd85b039836040518263ffffffff1660e01b81526004016105149190613e40565b60206040518083038186803b15801561052c57600080fd5b505afa158015610540573d6000803e3d6000fd5b505050506040513d601f19601f820116820180604052508101906105649190613512565b9050600181146105a9576040517f08c379a00000000000000000000000000000000000000000000000000000000081526004016105a090613da0565b60405180910390fd5b6000600460009054906101000a900473ffffffffffffffffffffffffffffffffffffffff1673ffffffffffffffffffffffffffffffffffffffff1662fdd58e33856040518363ffffffff1660e01b8152600401610607929190613a4f565b60206040518083038186803b15801561061f57600080fd5b505afa158015610633573d6000803e3d6000fd5b505050506040513d601f19601f820116820180604052508101906106579190613512565b90506001811461069c576040517f08c379a000000000000000000000000000000000000000000000000000000000815260040161069390613ba0565b60405180910390fd5b600084116106df576040517f08c379a00000000000000000000000000000000000000000000000000000000081526004016106d690613bc0565b60405180910390fd5b600460009054906101000a900473ffffffffffffffffffffffffffffffffffffffff1673ffffffffffffffffffffffffffffffffffffffff1663f242432a33308660016040518563ffffffff1660e01b8152600401610741949392919061399f565b600060405180830381600087803b15801561075b57600080fd5b505af115801561076f573d6000803e3d6000fd5b505050506040518060c001604052803373ffffffffffffffffffffffffffffffffffffffff168152602001858152602001600081526020014281526020018481526020016000151581525060016000600554815260200190815260200160002060008201518160000160006101000a81548173ffffffffffffffffffffffffffffffffffffffff021916908373ffffffffffffffffffffffffffffffffffffffff1602179055506020820151816001015560408201518160020155606082015181600301556080820151816004015560a08201518160050160006101000a81548160ff0219169083151502179055509050507f25fa87c7ce6f1874d9d70df6ebebabf36c8af873100126b8e11cbc02f243e3068433600554866040516108989493929190613ea0565b60405180910390a1600560008154809291906108b39061424f565b919050555050505050565b60007f4e2312e0000000000000000000000000000000000000000000000000000000007bffffffffffffffffffffffffffffffffffffffffffffffffffffffff1916827bffffffffffffffffffffffffffffffffffffffffffffffffffffffff19161480610931575061093082612ea6565b5b9050919050565b60008060008381526020019081526020016000206040518060e00160405290816000820160009054906101000a900473ffffffffffffffffffffffffffffffffffffffff1673ffffffffffffffffffffffffffffffffffffffff1673ffffffffffffffffffffffffffffffffffffffff168152602001600182015481526020016002820154815260200160038201548152602001600482015481526020016005820160009054906101000a900460ff1615151515815260200160068201548152505090503373ffffffffffffffffffffffffffffffffffffffff16816000015173ffffffffffffffffffffffffffffffffffffffff1614610a6e576040517f08c379a0000000000000000000000000000000000000000000000000000000008152600401610a6590613c40565b60405180910390fd5b600015158160a00151151514610ab9576040517f08c379a0000000000000000000000000000000000000000000000000000000008152600401610ab090613e20565b60405180910390fd5b6000600460009054906101000a900473ffffffffffffffffffffffffffffffffffffffff1673ffffffffffffffffffffffffffffffffffffffff1662fdd58e3084608001516040518363ffffffff1660e01b8152600401610b1b929190613a4f565b60206040518083038186803b158015610b3357600080fd5b505afa158015610b47573d6000803e3d6000fd5b505050506040513d601f19601f82011682018060405250810190610b6b9190613512565b905060008111610bb0576040517f08c379a0000000000000000000000000000000000000000000000000000000008152600401610ba790613be0565b60405180910390fd5b600160008085815260200190815260200160002060050160006101000a81548160ff021916908315150217905550600460009054906101000a900473ffffffffffffffffffffffffffffffffffffffff1673ffffffffffffffffffffffffffffffffffffffff1663f242432a30846000015185608001518660c001518760600151610c3b9190614122565b6040518563ffffffff1660e01b8152600401610c5a94939291906139f7565b600060405180830381600087803b158015610c7457600080fd5b505af1158015610c88573d6000803e3d6000fd5b50505050505050565b600063150b7a0260e01b9050949350505050565b6000600360003373ffffffffffffffffffffffffffffffffffffffff1673ffffffffffffffffffffffffffffffffffffffff16815260200190815260200160002054905060008111610d2c576040517f08c379a0000000000000000000000000000000000000000000000000000000008152600401610d2390613cc0565b60405180910390fd5b600360003373ffffffffffffffffffffffffffffffffffffffff1673ffffffffffffffffffffffffffffffffffffffff1681526020019081526020016000206000905560003373ffffffffffffffffffffffffffffffffffffffff1682604051610d959061396f565b60006040518083038185875af1925050503d8060008114610dd2576040519150601f19603f3d011682016040523d82523d6000602084013e610dd7565b606091505b5050905080610de557600080fd5b5050565b60008111610e2c576040517f08c379a0000000000000000000000000000000000000000000000000000000008152600401610e2390613bc0565b60405180910390fd5b6000600160008481526020019081526020016000206040518060c00160405290816000820160009054906101000a900473ffffffffffffffffffffffffffffffffffffffff1673ffffffffffffffffffffffffffffffffffffffff1673ffffffffffffffffffffffffffffffffffffffff168152602001600182015481526020016002820154815260200160038201548152602001600482015481526020016005820160009054906101000a900460ff16151515158152505090503373ffffffffffffffffffffffffffffffffffffffff16816000015173ffffffffffffffffffffffffffffffffffffffff1614610f59576040517f08c379a0000000000000000000000000000000000000000000000000000000008152600401610f5090613c40565b60405180910390fd5b600015158160a00151151514610fa4576040517f08c379a0000000000000000000000000000000000000000000000000000000008152600401610f9b90613dc0565b60405180910390fd5b6000816040015114610feb576040517f08c379a0000000000000000000000000000000000000000000000000000000008152600401610fe290613c60565b60405180910390fd5b8160016000858152602001908152602001600020600101819055507f25fa87c7ce6f1874d9d70df6ebebabf36c8af873100126b8e11cbc02f243e306823385846080015160405161103f9493929190613ea0565b60405180910390a1505050565b60026020528060005260406000206000915090508060000154908060010160009054906101000a900473ffffffffffffffffffffffffffffffffffffffff16908060020154908060030154905084565b6000600160008381526020019081526020016000206040518060c00160405290816000820160009054906101000a900473ffffffffffffffffffffffffffffffffffffffff1673ffffffffffffffffffffffffffffffffffffffff1673ffffffffffffffffffffffffffffffffffffffff168152602001600182015481526020016002820154815260200160038201548152602001600482015481526020016005820160009054906101000a900460ff1615151515815250509050600081606001511161119e576040517f08c379a000000000000000000000000000000000000000000000000000000000815260040161119590613d80565b60405180910390fd5b600015158160a001511515146111e9576040517f08c379a00000000000000000000000000000000000000000000000000000000081526004016111e090613dc0565b60405180910390fd5b428160400151101580611200575060008160400151145b61123f576040517f08c379a000000000000000000000000000000000000000000000000000000000815260040161123690613ca0565b60405180910390fd5b60008160400151141561127657620151804261125b9190614041565b60016000848152602001908152602001600020600201819055505b4261038482604001516112899190614041565b106112be576103846001600084815260200190815260200160002060020160008282546112b69190614041565b925050819055505b600060026000848152602001908152602001600020604051806080016040529081600082015481526020016001820160009054906101000a900473ffffffffffffffffffffffffffffffffffffffff1673ffffffffffffffffffffffffffffffffffffffff1673ffffffffffffffffffffffffffffffffffffffff1681526020016002820154815260200160038201548152505090506000816040015114156113ad5781602001513410156113a8576040517f08c379a000000000000000000000000000000000000000000000000000000000815260040161139f90613c80565b60405180910390fd5b6113f4565b806000015134116113f3576040517f08c379a00000000000000000000000000000000000000000000000000000000081526004016113ea90613d40565b60405180910390fd5b5b806000015160036000836020015173ffffffffffffffffffffffffffffffffffffffff1673ffffffffffffffffffffffffffffffffffffffff168152602001908152602001600020819055508060400180518091906114529061424f565b8152505033816020019073ffffffffffffffffffffffffffffffffffffffff16908173ffffffffffffffffffffffffffffffffffffffff168152505034816000018181525050816080015181606001818152505080600260008581526020019081526020016000206000820151816000015560208201518160010160006101000a81548173ffffffffffffffffffffffffffffffffffffffff021916908373ffffffffffffffffffffffffffffffffffffffff16021790555060408201518160020155606082015181600301559050507f1bef37d3a105e12f10a2a477942ef25bfd5f84c8a19cd3b4d80a74184a557cd7826080015184343360405161155b9493929190613ee5565b60405180910390a1505050565b60008060008481526020019081526020016000206040518060e00160405290816000820160009054906101000a900473ffffffffffffffffffffffffffffffffffffffff1673ffffffffffffffffffffffffffffffffffffffff1673ffffffffffffffffffffffffffffffffffffffff168152602001600182015481526020016002820154815260200160038201548152602001600482015481526020016005820160009054906101000a900460ff1615151515815260200160068201548152505090506000816040015111611673576040517f08c379a000000000000000000000000000000000000000000000000000000000815260040161166a90613d60565b60405180910390fd5b600015158160a001511515146116be576040517f08c379a00000000000000000000000000000000000000000000000000000000081526004016116b590613dc0565b60405180910390fd5b818160c0015182606001516116d39190614122565b1015611714576040517f08c379a000000000000000000000000000000000000000000000000000000000815260040161170b90613de0565b60405180910390fd5b81816020015161172491906140c8565b3414611765576040517f08c379a000000000000000000000000000000000000000000000000000000000815260040161175c90613c00565b60405180910390fd5b6000600460009054906101000a900473ffffffffffffffffffffffffffffffffffffffff1673ffffffffffffffffffffffffffffffffffffffff16637b9461fc83608001516040518263ffffffff1660e01b81526004016117c69190613e40565b60006040518083038186803b1580156117de57600080fd5b505afa1580156117f2573d6000803e3d6000fd5b505050506040513d6000823e3d601f19601f8201168201806040525081019061181b91906134a8565b90506000600460009054906101000a900473ffffffffffffffffffffffffffffffffffffffff1673ffffffffffffffffffffffffffffffffffffffff1663979c4580836040518263ffffffff1660e01b815260040161187a9190613b7e565b60006040518083038186803b15801561189257600080fd5b505afa1580156118a6573d6000803e3d6000fd5b505050506040513d6000823e3d601f19601f820116820180604052508101906118cf91906133fd565b90506000600460009054906101000a900473ffffffffffffffffffffffffffffffffffffffff1673ffffffffffffffffffffffffffffffffffffffff1663bf1dd785846040518263ffffffff1660e01b815260040161192e9190613b7e565b60006040518083038186803b15801561194657600080fd5b505afa15801561195a573d6000803e3d6000fd5b505050506040513d6000823e3d601f19601f82011682018060405250810190611983919061343e565b90508460008088815260200190815260200160002060060160008282546119aa9190614041565b92505081905550600034905060005b8351811015611af7576000606483858481518110611a00577f4e487b7100000000000000000000000000000000000000000000000000000000600052603260045260246000fd5b6020026020010151611a1291906140c8565b611a1c9190614097565b90508083611a2a9190614122565b92506000858381518110611a67577f4e487b7100000000000000000000000000000000000000000000000000000000600052603260045260246000fd5b602002602001015173ffffffffffffffffffffffffffffffffffffffff1682604051611a929061396f565b60006040518083038185875af1925050503d8060008114611acf576040519150601f19603f3d011682016040523d82523d6000602084013e611ad4565b606091505b5050905080611ae257600080fd5b50508080611aef9061424f565b9150506119b9565b506000856000015173ffffffffffffffffffffffffffffffffffffffff1682604051611b229061396f565b60006040518083038185875af1925050503d8060008114611b5f576040519150601f19603f3d011682016040523d82523d6000602084013e611b64565b606091505b5050905080611b7257600080fd5b600460009054906101000a900473ffffffffffffffffffffffffffffffffffffffff1673ffffffffffffffffffffffffffffffffffffffff1663f242432a303389608001518b6040518563ffffffff1660e01b8152600401611bd794939291906139f7565b600060405180830381600087803b158015611bf157600080fd5b505af1158015611c05573d6000803e3d6000fd5b505050507f88863d5e20f64464b554931394e2e4b6f09c10015147215bf26b3ba5070acebe86606001513388600001518960800151604051611c4a9493929190613e5b565b60405180910390a15050505050505050565b60016020528060005260406000206000915090508060000160009054906101000a900473ffffffffffffffffffffffffffffffffffffffff16908060010154908060020154908060030154908060040154908060050160009054906101000a900460ff16905086565b60036020528060005260406000206000915090505481565b60008111611d20576040517f08c379a0000000000000000000000000000000000000000000000000000000008152600401611d1790613d20565b60405180910390fd5b60008060008481526020019081526020016000206040518060e00160405290816000820160009054906101000a900473ffffffffffffffffffffffffffffffffffffffff1673ffffffffffffffffffffffffffffffffffffffff1673ffffffffffffffffffffffffffffffffffffffff168152602001600182015481526020016002820154815260200160038201548152602001600482015481526020016005820160009054906101000a900460ff1615151515815260200160068201548152505090503373ffffffffffffffffffffffffffffffffffffffff16816000015173ffffffffffffffffffffffffffffffffffffffff1614611e56576040517f08c379a0000000000000000000000000000000000000000000000000000000008152600401611e4d90613c40565b60405180910390fd5b600015158160a00151151514611ea1576040517f08c379a0000000000000000000000000000000000000000000000000000000008152600401611e9890613dc0565b60405180910390fd5b6000600460009054906101000a900473ffffffffffffffffffffffffffffffffffffffff1673ffffffffffffffffffffffffffffffffffffffff1662fdd58e3084608001516040518363ffffffff1660e01b8152600401611f03929190613a4f565b60206040518083038186803b158015611f1b57600080fd5b505afa158015611f2f573d6000803e3d6000fd5b505050506040513d601f19601f82011682018060405250810190611f539190613512565b905060008111611f98576040517f08c379a0000000000000000000000000000000000000000000000000000000008152600401611f8f90613be0565b60405180910390fd5b826000808681526020019081526020016000206001018190555050505050565b60055481565b6000600160008381526020019081526020016000206040518060c00160405290816000820160009054906101000a900473ffffffffffffffffffffffffffffffffffffffff1673ffffffffffffffffffffffffffffffffffffffff1673ffffffffffffffffffffffffffffffffffffffff168152602001600182015481526020016002820154815260200160038201548152602001600482015481526020016005820160009054906101000a900460ff16151515158152505090503373ffffffffffffffffffffffffffffffffffffffff16816000015173ffffffffffffffffffffffffffffffffffffffff16146120eb576040517f08c379a00000000000000000000000000000000000000000000000000000000081526004016120e290613c40565b60405180910390fd5b600015158160a00151151514612136576040517f08c379a000000000000000000000000000000000000000000000000000000000815260040161212d90613e00565b60405180910390fd5b600081604001511461217d576040517f08c379a000000000000000000000000000000000000000000000000000000000815260040161217490613ce0565b60405180910390fd5b600180600084815260200190815260200160002060050160006101000a81548160ff021916908315150217905550600460009054906101000a900473ffffffffffffffffffffffffffffffffffffffff1673ffffffffffffffffffffffffffffffffffffffff1663f242432a308360000151846080015160016040518563ffffffff1660e01b8152600401612215949392919061399f565b600060405180830381600087803b15801561222f57600080fd5b505af1158015612243573d6000803e3d6000fd5b505050505050565b600460009054906101000a900473ffffffffffffffffffffffffffffffffffffffff1681565b60006020528060005260406000206000915090508060000160009054906101000a900473ffffffffffffffffffffffffffffffffffffffff16908060010154908060020154908060030154908060040154908060050160009054906101000a900460ff16908060060154905087565b6000600460009054906101000a900473ffffffffffffffffffffffffffffffffffffffff1673ffffffffffffffffffffffffffffffffffffffff1662fdd58e33856040518363ffffffff1660e01b815260040161233e929190613a4f565b60206040518083038186803b15801561235657600080fd5b505afa15801561236a573d6000803e3d6000fd5b505050506040513d601f19601f8201168201806040525081019061238e9190613512565b9050600081116123d3576040517f08c379a00000000000000000000000000000000000000000000000000000000081526004016123ca90613ba0565b60405180910390fd5b60008411612416576040517f08c379a000000000000000000000000000000000000000000000000000000000815260040161240d90613d20565b60405180910390fd5b600460009054906101000a900473ffffffffffffffffffffffffffffffffffffffff1673ffffffffffffffffffffffffffffffffffffffff1663f242432a333086866040518563ffffffff1660e01b815260040161247794939291906139f7565b600060405180830381600087803b15801561249157600080fd5b505af11580156124a5573d6000803e3d6000fd5b505050506040518060e001604052803373ffffffffffffffffffffffffffffffffffffffff1681526020018581526020014281526020018381526020018481526020016000151581526020016000815250600080600554815260200190815260200160002060008201518160000160006101000a81548173ffffffffffffffffffffffffffffffffffffffff021916908373ffffffffffffffffffffffffffffffffffffffff1602179055506020820151816001015560408201518160020155606082015181600301556080820151816004015560a08201518160050160006101000a81548160ff02191690831515021790555060c082015181600601559050507f25fa87c7ce6f1874d9d70df6ebebabf36c8af873100126b8e11cbc02f243e3068433600554866040516125dd9493929190613ea0565b60405180910390a1600560008154809291906125f89061424f565b919050555050505050565b600060026000838152602001908152602001600020604051806080016040529081600082015481526020016001820160009054906101000a900473ffffffffffffffffffffffffffffffffffffffff1673ffffffffffffffffffffffffffffffffffffffff1673ffffffffffffffffffffffffffffffffffffffff1681526020016002820154815260200160038201548152505090506000600160008481526020019081526020016000206040518060c00160405290816000820160009054906101000a900473ffffffffffffffffffffffffffffffffffffffff1673ffffffffffffffffffffffffffffffffffffffff1673ffffffffffffffffffffffffffffffffffffffff168152602001600182015481526020016002820154815260200160038201548152602001600482015481526020016005820160009054906101000a900460ff1615151515815250509050806000015173ffffffffffffffffffffffffffffffffffffffff163373ffffffffffffffffffffffffffffffffffffffff1614806127c15750816020015173ffffffffffffffffffffffffffffffffffffffff163373ffffffffffffffffffffffffffffffffffffffff16145b612800576040517f08c379a00000000000000000000000000000000000000000000000000000000081526004016127f790613c20565b60405180910390fd5b6000816060015111612847576040517f08c379a000000000000000000000000000000000000000000000000000000000815260040161283e90613d80565b60405180910390fd5b600015158160a00151151514612892576040517f08c379a000000000000000000000000000000000000000000000000000000000815260040161288990613dc0565b60405180910390fd5b4281604001511080156128aa57506000816040015114155b6128e9576040517f08c379a00000000000000000000000000000000000000000000000000000000081526004016128e090613d00565b60405180910390fd5b60008260000151148015612901575042816040015111155b156129a757600460009054906101000a900473ffffffffffffffffffffffffffffffffffffffff1673ffffffffffffffffffffffffffffffffffffffff1663f242432a308360000151846080015160016040518563ffffffff1660e01b8152600401612970949392919061399f565b600060405180830381600087803b15801561298a57600080fd5b505af115801561299e573d6000803e3d6000fd5b50505050612e77565b6000600460009054906101000a900473ffffffffffffffffffffffffffffffffffffffff1673ffffffffffffffffffffffffffffffffffffffff16637b9461fc83608001516040518263ffffffff1660e01b8152600401612a089190613e40565b60006040518083038186803b158015612a2057600080fd5b505afa158015612a34573d6000803e3d6000fd5b505050506040513d6000823e3d601f19601f82011682018060405250810190612a5d91906134a8565b90506000600460009054906101000a900473ffffffffffffffffffffffffffffffffffffffff1673ffffffffffffffffffffffffffffffffffffffff1663979c4580836040518263ffffffff1660e01b8152600401612abc9190613b7e565b60006040518083038186803b158015612ad457600080fd5b505afa158015612ae8573d6000803e3d6000fd5b505050506040513d6000823e3d601f19601f82011682018060405250810190612b1191906133fd565b90506000600460009054906101000a900473ffffffffffffffffffffffffffffffffffffffff1673ffffffffffffffffffffffffffffffffffffffff1663bf1dd785846040518263ffffffff1660e01b8152600401612b709190613b7e565b60006040518083038186803b158015612b8857600080fd5b505afa158015612b9c573d6000803e3d6000fd5b505050506040513d6000823e3d601f19601f82011682018060405250810190612bc5919061343e565b905060008560000151905060005b8351811015612d11576000606483858481518110612c1a577f4e487b7100000000000000000000000000000000000000000000000000000000600052603260045260246000fd5b6020026020010151612c2c91906140c8565b612c369190614097565b90508083612c449190614122565b92506000858381518110612c81577f4e487b7100000000000000000000000000000000000000000000000000000000600052603260045260246000fd5b602002602001015173ffffffffffffffffffffffffffffffffffffffff1682604051612cac9061396f565b60006040518083038185875af1925050503d8060008114612ce9576040519150601f19603f3d011682016040523d82523d6000602084013e612cee565b606091505b5050905080612cfc57600080fd5b50508080612d099061424f565b915050612bd3565b506000856000015173ffffffffffffffffffffffffffffffffffffffff1682604051612d3c9061396f565b60006040518083038185875af1925050503d8060008114612d79576040519150601f19603f3d011682016040523d82523d6000602084013e612d7e565b606091505b5050905080612d8c57600080fd5b600460009054906101000a900473ffffffffffffffffffffffffffffffffffffffff1673ffffffffffffffffffffffffffffffffffffffff1663f242432a308960200151896080015160016040518563ffffffff1660e01b8152600401612df6949392919061399f565b600060405180830381600087803b158015612e1057600080fd5b505af1158015612e24573d6000803e3d6000fd5b505050507f88863d5e20f64464b554931394e2e4b6f09c10015147215bf26b3ba5070acebe82886020015188600001518960800151604051612e699493929190613e5b565b60405180910390a150505050505b505050565b600063bc197c8160e01b905095945050505050565b600063f23a6e6160e01b905095945050505050565b60007f01ffc9a7000000000000000000000000000000000000000000000000000000007bffffffffffffffffffffffffffffffffffffffffffffffffffffffff1916827bffffffffffffffffffffffffffffffffffffffffffffffffffffffff1916149050919050565b6000612f23612f1e84613f4f565b613f2a565b90508083825260208201905082856020860282011115612f4257600080fd5b60005b85811015612f725781612f5888826130e5565b845260208401935060208301925050600181019050612f45565b5050509392505050565b6000612f8f612f8a84613f7b565b613f2a565b90508083825260208201905082856020860282011115612fae57600080fd5b60005b85811015612fde5781612fc488826131e1565b845260208401935060208301925050600181019050612fb1565b5050509392505050565b6000612ffb612ff684613f7b565b613f2a565b9050808382526020820190508285602086028201111561301a57600080fd5b60005b8581101561304a578161303088826131f6565b84526020840193506020830192505060018101905061301d565b5050509392505050565b600061306761306284613fa7565b613f2a565b90508281526020810184848401111561307f57600080fd5b61308a8482856141dc565b509392505050565b60006130a56130a084613fd8565b613f2a565b9050828152602081018484840111156130bd57600080fd5b6130c88482856141eb565b509392505050565b6000813590506130df8161485e565b92915050565b6000815190506130f48161485e565b92915050565b600082601f83011261310b57600080fd5b815161311b848260208601612f10565b91505092915050565b600082601f83011261313557600080fd5b8135613145848260208601612f7c565b91505092915050565b600082601f83011261315f57600080fd5b815161316f848260208601612fe8565b91505092915050565b60008135905061318781614875565b92915050565b600082601f83011261319e57600080fd5b81356131ae848260208601613054565b91505092915050565b600082601f8301126131c857600080fd5b81516131d8848260208601613092565b91505092915050565b6000813590506131f08161488c565b92915050565b6000815190506132058161488c565b92915050565b60006020828403121561321d57600080fd5b600061322b848285016130d0565b91505092915050565b600080600080600060a0868803121561324c57600080fd5b600061325a888289016130d0565b955050602061326b888289016130d0565b945050604086013567ffffffffffffffff81111561328857600080fd5b61329488828901613124565b935050606086013567ffffffffffffffff8111156132b157600080fd5b6132bd88828901613124565b925050608086013567ffffffffffffffff8111156132da57600080fd5b6132e68882890161318d565b9150509295509295909350565b6000806000806080858703121561330957600080fd5b6000613317878288016130d0565b9450506020613328878288016130d0565b9350506040613339878288016131e1565b925050606085013567ffffffffffffffff81111561335657600080fd5b6133628782880161318d565b91505092959194509250565b600080600080600060a0868803121561338657600080fd5b6000613394888289016130d0565b95505060206133a5888289016130d0565b94505060406133b6888289016131e1565b93505060606133c7888289016131e1565b925050608086013567ffffffffffffffff8111156133e457600080fd5b6133f08882890161318d565b9150509295509295909350565b60006020828403121561340f57600080fd5b600082015167ffffffffffffffff81111561342957600080fd5b613435848285016130fa565b91505092915050565b60006020828403121561345057600080fd5b600082015167ffffffffffffffff81111561346a57600080fd5b6134768482850161314e565b91505092915050565b60006020828403121561349157600080fd5b600061349f84828501613178565b91505092915050565b6000602082840312156134ba57600080fd5b600082015167ffffffffffffffff8111156134d457600080fd5b6134e0848285016131b7565b91505092915050565b6000602082840312156134fb57600080fd5b6000613509848285016131e1565b91505092915050565b60006020828403121561352457600080fd5b6000613532848285016131f6565b91505092915050565b6000806040838503121561354e57600080fd5b600061355c858286016131e1565b925050602061356d858286016131e1565b9150509250929050565b60008060006060848603121561358c57600080fd5b600061359a868287016131e1565b93505060206135ab868287016131e1565b92505060406135bc868287016131e1565b9150509250925092565b6135cf81614156565b82525050565b6135de81614168565b82525050565b6135ed81614174565b82525050565b6135fc816141ca565b82525050565b600061360d82614009565b6136178185614030565b93506136278185602086016141eb565b61363081614325565b840191505092915050565b6000613648601983614030565b915061365382614336565b602082019050919050565b600061366b601d83614030565b91506136768261435f565b602082019050919050565b600061368e602083614030565b915061369982614388565b602082019050919050565b60006136b1603d83614030565b91506136bc826143b1565b604082019050919050565b60006136d4602d83614030565b91506136df82614400565b604082019050919050565b60006136f7601b83614030565b91506137028261444f565b602082019050919050565b600061371a602d83614030565b915061372582614478565b604082019050919050565b600061373d603a83614030565b9150613748826144c7565b604082019050919050565b6000613760601683614030565b915061376b82614516565b602082019050919050565b6000613783602883614030565b915061378e8261453f565b604082019050919050565b60006137a6603883614030565b91506137b18261458e565b604082019050919050565b60006137c9602183614030565b91506137d4826145dd565b604082019050919050565b60006137ec601883614030565b91506137f78261462c565b602082019050919050565b600061380f603083614030565b915061381a82614655565b604082019050919050565b6000613832602383614030565b915061383d826146a4565b604082019050919050565b6000613855601c83614030565b9150613860826146f3565b602082019050919050565b6000613878600083614014565b91506138838261471c565b600082019050919050565b600061389b600083614025565b91506138a68261471c565b600082019050919050565b60006138be601e83614030565b91506138c98261471f565b602082019050919050565b60006138e1601f83614030565b91506138ec82614748565b602082019050919050565b6000613904602f83614030565b915061390f82614771565b604082019050919050565b6000613927602783614030565b9150613932826147c0565b604082019050919050565b600061394a602783614030565b91506139558261480f565b604082019050919050565b613969816141c0565b82525050565b600061397a8261388e565b9150819050919050565b600060208201905061399960008301846135c6565b92915050565b600060a0820190506139b460008301876135c6565b6139c160208301866135c6565b6139ce6040830185613960565b6139db60608301846135f3565b81810360808301526139ec8161386b565b905095945050505050565b600060a082019050613a0c60008301876135c6565b613a1960208301866135c6565b613a266040830185613960565b613a336060830184613960565b8181036080830152613a448161386b565b905095945050505050565b6000604082019050613a6460008301856135c6565b613a716020830184613960565b9392505050565b600060c082019050613a8d60008301896135c6565b613a9a6020830188613960565b613aa76040830187613960565b613ab46060830186613960565b613ac16080830185613960565b613ace60a08301846135d5565b979650505050505050565b600060e082019050613aee600083018a6135c6565b613afb6020830189613960565b613b086040830188613960565b613b156060830187613960565b613b226080830186613960565b613b2f60a08301856135d5565b613b3c60c0830184613960565b98975050505050505050565b6000602082019050613b5d60008301846135d5565b92915050565b6000602082019050613b7860008301846135e4565b92915050565b60006020820190508181036000830152613b988184613602565b905092915050565b60006020820190508181036000830152613bb98161363b565b9050919050565b60006020820190508181036000830152613bd98161365e565b9050919050565b60006020820190508181036000830152613bf981613681565b9050919050565b60006020820190508181036000830152613c19816136a4565b9050919050565b60006020820190508181036000830152613c39816136c7565b9050919050565b60006020820190508181036000830152613c59816136ea565b9050919050565b60006020820190508181036000830152613c798161370d565b9050919050565b60006020820190508181036000830152613c9981613730565b9050919050565b60006020820190508181036000830152613cb981613753565b9050919050565b60006020820190508181036000830152613cd981613776565b9050919050565b60006020820190508181036000830152613cf981613799565b9050919050565b60006020820190508181036000830152613d19816137bc565b9050919050565b60006020820190508181036000830152613d39816137df565b9050919050565b60006020820190508181036000830152613d5981613802565b9050919050565b60006020820190508181036000830152613d7981613825565b9050919050565b60006020820190508181036000830152613d9981613848565b9050919050565b60006020820190508181036000830152613db9816138b1565b9050919050565b60006020820190508181036000830152613dd9816138d4565b9050919050565b60006020820190508181036000830152613df9816138f7565b9050919050565b60006020820190508181036000830152613e198161391a565b9050919050565b60006020820190508181036000830152613e398161393d565b9050919050565b6000602082019050613e556000830184613960565b92915050565b6000608082019050613e706000830187613960565b613e7d60208301866135c6565b613e8a60408301856135c6565b613e976060830184613960565b95945050505050565b6000608082019050613eb56000830187613960565b613ec260208301866135c6565b613ecf6040830185613960565b613edc6060830184613960565b95945050505050565b6000608082019050613efa6000830187613960565b613f076020830186613960565b613f146040830185613960565b613f2160608301846135c6565b95945050505050565b6000613f34613f45565b9050613f40828261421e565b919050565b6000604051905090565b600067ffffffffffffffff821115613f6a57613f696142f6565b5b602082029050602081019050919050565b600067ffffffffffffffff821115613f9657613f956142f6565b5b602082029050602081019050919050565b600067ffffffffffffffff821115613fc257613fc16142f6565b5b613fcb82614325565b9050602081019050919050565b600067ffffffffffffffff821115613ff357613ff26142f6565b5b613ffc82614325565b9050602081019050919050565b600081519050919050565b600082825260208201905092915050565b600081905092915050565b600082825260208201905092915050565b600061404c826141c0565b9150614057836141c0565b9250827fffffffffffffffffffffffffffffffffffffffffffffffffffffffffffffffff0382111561408c5761408b614298565b5b828201905092915050565b60006140a2826141c0565b91506140ad836141c0565b9250826140bd576140bc6142c7565b5b828204905092915050565b60006140d3826141c0565b91506140de836141c0565b9250817fffffffffffffffffffffffffffffffffffffffffffffffffffffffffffffffff048311821515161561411757614116614298565b5b828202905092915050565b600061412d826141c0565b9150614138836141c0565b92508282101561414b5761414a614298565b5b828203905092915050565b6000614161826141a0565b9050919050565b60008115159050919050565b60007fffffffff0000000000000000000000000000000000000000000000000000000082169050919050565b600073ffffffffffffffffffffffffffffffffffffffff82169050919050565b6000819050919050565b60006141d5826141c0565b9050919050565b82818337600083830152505050565b60005b838110156142095780820151818401526020810190506141ee565b83811115614218576000848401525b50505050565b61422782614325565b810181811067ffffffffffffffff82111715614246576142456142f6565b5b80604052505050565b600061425a826141c0565b91507fffffffffffffffffffffffffffffffffffffffffffffffffffffffffffffffff82141561428d5761428c614298565b5b600182019050919050565b7f4e487b7100000000000000000000000000000000000000000000000000000000600052601160045260246000fd5b7f4e487b7100000000000000000000000000000000000000000000000000000000600052601260045260246000fd5b7f4e487b7100000000000000000000000000000000000000000000000000000000600052604160045260246000fd5b6000601f19601f8301169050919050565b7f596f7520646f206e6f74206f776e207468697320746f6b656e00000000000000600082015250565b7f426173652070726963652063616e6e6f742062652073657420746f2030000000600082015250565b7f5468697320746f6b656e2068617320616c7265616479206265656e20736f6c64600082015250565b7f4c697374656420707269636520616e642074686520616d6f756e742073656e7460008201527f20746f2074686520636f6e747261637420646f206e6f74206d61746368000000602082015250565b7f596f7520617265206e6f7420617574686f72697a656420746f20706572666f7260008201527f6d207468697320616374696f6e00000000000000000000000000000000000000602082015250565b7f596f7520646f206e6f74206f776e2074686973206c697374696e670000000000600082015250565b7f4261736520707269636520666f7220746869732061756374696f6e2063616e6e60008201527f6f74206265206368616e67656400000000000000000000000000000000000000602082015250565b7f596f7572206269642073686f756c642062652067726561746572207468616e2060008201527f6f7220657175616c20746f207468652062617365207072696365000000000000602082015250565b7f546869732061756374696f6e2068617320656e64656400000000000000000000600082015250565b7f596f7520646f206e6f74206861766520616e7920616d6f756e7420746f20626560008201527f20636c61696d6564000000000000000000000000000000000000000000000000602082015250565b7f546869732061756374696f6e2068617320616c7265616479207374617274656460008201527f20616e642063616e6e6f742062652063616e63656c6c65640000000000000000602082015250565b7f546869732061756374696f6e206973207374696c6c20696e2070726f6772657360008201527f7300000000000000000000000000000000000000000000000000000000000000602082015250565b7f50726963652063616e6e6f742062652073657420746f20300000000000000000600082015250565b7f596f7572206269642073686f756c642062652067726561746572207468616e2060008201527f7468652070726576696f75732062696400000000000000000000000000000000602082015250565b7f5468697320746f6b656e206973206e6f74206c697374656420746f206265207360008201527f6f6c640000000000000000000000000000000000000000000000000000000000602082015250565b7f5468697320746f6b656e206973206e6f74206f6e2061756374696f6e00000000600082015250565b50565b7f5468697320746f6b656e2063616e6e6f742062652061756374696f6e65640000600082015250565b7f54686973206c697374696e6720686173206265656e2063616e63656c6c656400600082015250565b7f546865726520617265206e6f74207468657365206d617920636f70696573206160008201527f7661696c61626c6520746f206275790000000000000000000000000000000000602082015250565b7f546869732061756374696f6e2068617320616c7265616479206265656e20636160008201527f6e63656c6c656400000000000000000000000000000000000000000000000000602082015250565b7f54686973206c697374696e672068617320616c7265616479206265656e20636160008201527f6e63656c6c656400000000000000000000000000000000000000000000000000602082015250565b61486781614156565b811461487257600080fd5b50565b61487e81614174565b811461488957600080fd5b50565b614895816141c0565b81146148a057600080fd5b5056fea264697066735822122037d2037874f31802d072aa4a57a7b4d7a2a6c226e134b4f4927b08d8543ef90864736f6c63430008040033",
    "linkReferences": {},
    "deployedLinkReferences": {},
    "contractAddress": "0xa62847fA5ed44E6d4629Dfcc02C45580859728b7"
}