{
    "_format": "hh-sol-artifact-1",
    "contractName": "MyToken",
    "sourceName": "contracts/erc1155.sol",
    "abi": [
        {
            "inputs": [
                {
                    "internalType": "string",
                    "name": "_name",
                    "type": "string"
                },
                {
                    "internalType": "string",
                    "name": "_symbol",
                    "type": "string"
                }
            ],
            "stateMutability": "nonpayable",
            "type": "constructor"
        },
        {
            "anonymous": false,
            "inputs": [
                {
                    "indexed": true,
                    "internalType": "address",
                    "name": "account",
                    "type": "address"
                },
                {
                    "indexed": true,
                    "internalType": "address",
                    "name": "operator",
                    "type": "address"
                },
                {
                    "indexed": false,
                    "internalType": "bool",
                    "name": "approved",
                    "type": "bool"
                }
            ],
            "name": "ApprovalForAll",
            "type": "event"
        },
        {
            "anonymous": false,
            "inputs": [
                {
                    "indexed": false,
                    "internalType": "address",
                    "name": "account",
                    "type": "address"
                }
            ],
            "name": "Paused",
            "type": "event"
        },
        {
            "anonymous": false,
            "inputs": [
                {
                    "indexed": true,
                    "internalType": "address",
                    "name": "operator",
                    "type": "address"
                },
                {
                    "indexed": true,
                    "internalType": "address",
                    "name": "from",
                    "type": "address"
                },
                {
                    "indexed": true,
                    "internalType": "address",
                    "name": "to",
                    "type": "address"
                },
                {
                    "indexed": false,
                    "internalType": "uint256[]",
                    "name": "ids",
                    "type": "uint256[]"
                },
                {
                    "indexed": false,
                    "internalType": "uint256[]",
                    "name": "values",
                    "type": "uint256[]"
                }
            ],
            "name": "TransferBatch",
            "type": "event"
        },
        {
            "anonymous": false,
            "inputs": [
                {
                    "indexed": true,
                    "internalType": "address",
                    "name": "operator",
                    "type": "address"
                },
                {
                    "indexed": true,
                    "internalType": "address",
                    "name": "from",
                    "type": "address"
                },
                {
                    "indexed": true,
                    "internalType": "address",
                    "name": "to",
                    "type": "address"
                },
                {
                    "indexed": false,
                    "internalType": "uint256",
                    "name": "id",
                    "type": "uint256"
                },
                {
                    "indexed": false,
                    "internalType": "uint256",
                    "name": "value",
                    "type": "uint256"
                }
            ],
            "name": "TransferSingle",
            "type": "event"
        },
        {
            "anonymous": false,
            "inputs": [
                {
                    "indexed": false,
                    "internalType": "string",
                    "name": "value",
                    "type": "string"
                },
                {
                    "indexed": true,
                    "internalType": "uint256",
                    "name": "id",
                    "type": "uint256"
                }
            ],
            "name": "URI",
            "type": "event"
        },
        {
            "anonymous": false,
            "inputs": [
                {
                    "indexed": false,
                    "internalType": "address",
                    "name": "account",
                    "type": "address"
                }
            ],
            "name": "Unpaused",
            "type": "event"
        },
        {
            "inputs": [
                {
                    "internalType": "address",
                    "name": "user",
                    "type": "address"
                }
            ],
            "name": "_isOwner",
            "outputs": [
                {
                    "internalType": "bool",
                    "name": "",
                    "type": "bool"
                }
            ],
            "stateMutability": "view",
            "type": "function"
        },
        {
            "inputs": [
                {
                    "internalType": "address",
                    "name": "user",
                    "type": "address"
                }
            ],
            "name": "addOwner",
            "outputs": [],
            "stateMutability": "nonpayable",
            "type": "function"
        },
        {
            "inputs": [
                {
                    "internalType": "address",
                    "name": "account",
                    "type": "address"
                },
                {
                    "internalType": "uint256",
                    "name": "id",
                    "type": "uint256"
                }
            ],
            "name": "balanceOf",
            "outputs": [
                {
                    "internalType": "uint256",
                    "name": "",
                    "type": "uint256"
                }
            ],
            "stateMutability": "view",
            "type": "function"
        },
        {
            "inputs": [
                {
                    "internalType": "address[]",
                    "name": "accounts",
                    "type": "address[]"
                },
                {
                    "internalType": "uint256[]",
                    "name": "ids",
                    "type": "uint256[]"
                }
            ],
            "name": "balanceOfBatch",
            "outputs": [
                {
                    "internalType": "uint256[]",
                    "name": "",
                    "type": "uint256[]"
                }
            ],
            "stateMutability": "view",
            "type": "function"
        },
        {
            "inputs": [
                {
                    "internalType": "string",
                    "name": "_collectionId",
                    "type": "string"
                },
                {
                    "internalType": "string",
                    "name": "_name",
                    "type": "string"
                },
                {
                    "internalType": "address[]",
                    "name": "_royaltyHolders",
                    "type": "address[]"
                },
                {
                    "internalType": "uint256[]",
                    "name": "_royalty",
                    "type": "uint256[]"
                }
            ],
            "name": "createCollection",
            "outputs": [],
            "stateMutability": "nonpayable",
            "type": "function"
        },
        {
            "inputs": [
                {
                    "internalType": "uint256",
                    "name": "id",
                    "type": "uint256"
                }
            ],
            "name": "exists",
            "outputs": [
                {
                    "internalType": "bool",
                    "name": "",
                    "type": "bool"
                }
            ],
            "stateMutability": "view",
            "type": "function"
        },
        {
            "inputs": [
                {
                    "internalType": "string",
                    "name": "_collectionId",
                    "type": "string"
                }
            ],
            "name": "getRoyaltyHolders",
            "outputs": [
                {
                    "internalType": "address[]",
                    "name": "",
                    "type": "address[]"
                }
            ],
            "stateMutability": "view",
            "type": "function"
        },
        {
            "inputs": [
                {
                    "internalType": "string",
                    "name": "_collectionId",
                    "type": "string"
                }
            ],
            "name": "getRoyaltyPercentages",
            "outputs": [
                {
                    "internalType": "uint256[]",
                    "name": "",
                    "type": "uint256[]"
                }
            ],
            "stateMutability": "view",
            "type": "function"
        },
        {
            "inputs": [
                {
                    "internalType": "address",
                    "name": "account",
                    "type": "address"
                },
                {
                    "internalType": "address",
                    "name": "operator",
                    "type": "address"
                }
            ],
            "name": "isApprovedForAll",
            "outputs": [
                {
                    "internalType": "bool",
                    "name": "",
                    "type": "bool"
                }
            ],
            "stateMutability": "view",
            "type": "function"
        },
        {
            "inputs": [
                {
                    "internalType": "uint256",
                    "name": "_amount",
                    "type": "uint256"
                },
                {
                    "internalType": "string",
                    "name": "_collectionId",
                    "type": "string"
                },
                {
                    "internalType": "string",
                    "name": "_tokenUri",
                    "type": "string"
                }
            ],
            "name": "mint",
            "outputs": [],
            "stateMutability": "nonpayable",
            "type": "function"
        },
        {
            "inputs": [],
            "name": "name",
            "outputs": [
                {
                    "internalType": "string",
                    "name": "",
                    "type": "string"
                }
            ],
            "stateMutability": "view",
            "type": "function"
        },
        {
            "inputs": [
                {
                    "internalType": "string",
                    "name": "",
                    "type": "string"
                }
            ],
            "name": "nftCollectionDetails",
            "outputs": [
                {
                    "internalType": "string",
                    "name": "name",
                    "type": "string"
                }
            ],
            "stateMutability": "view",
            "type": "function"
        },
        {
            "inputs": [
                {
                    "internalType": "uint256",
                    "name": "",
                    "type": "uint256"
                }
            ],
            "name": "nftCollectionRecord",
            "outputs": [
                {
                    "internalType": "string",
                    "name": "",
                    "type": "string"
                }
            ],
            "stateMutability": "view",
            "type": "function"
        },
        {
            "inputs": [
                {
                    "internalType": "uint256",
                    "name": "",
                    "type": "uint256"
                }
            ],
            "name": "owners",
            "outputs": [
                {
                    "internalType": "address",
                    "name": "",
                    "type": "address"
                }
            ],
            "stateMutability": "view",
            "type": "function"
        },
        {
            "inputs": [],
            "name": "pause",
            "outputs": [],
            "stateMutability": "nonpayable",
            "type": "function"
        },
        {
            "inputs": [],
            "name": "paused",
            "outputs": [
                {
                    "internalType": "bool",
                    "name": "",
                    "type": "bool"
                }
            ],
            "stateMutability": "view",
            "type": "function"
        },
        {
            "inputs": [
                {
                    "internalType": "address",
                    "name": "user",
                    "type": "address"
                }
            ],
            "name": "removeOwner",
            "outputs": [],
            "stateMutability": "nonpayable",
            "type": "function"
        },
        {
            "inputs": [
                {
                    "internalType": "address",
                    "name": "from",
                    "type": "address"
                },
                {
                    "internalType": "address",
                    "name": "to",
                    "type": "address"
                },
                {
                    "internalType": "uint256[]",
                    "name": "ids",
                    "type": "uint256[]"
                },
                {
                    "internalType": "uint256[]",
                    "name": "amounts",
                    "type": "uint256[]"
                },
                {
                    "internalType": "bytes",
                    "name": "data",
                    "type": "bytes"
                }
            ],
            "name": "safeBatchTransferFrom",
            "outputs": [],
            "stateMutability": "nonpayable",
            "type": "function"
        },
        {
            "inputs": [
                {
                    "internalType": "address",
                    "name": "from",
                    "type": "address"
                },
                {
                    "internalType": "address",
                    "name": "to",
                    "type": "address"
                },
                {
                    "internalType": "uint256",
                    "name": "id",
                    "type": "uint256"
                },
                {
                    "internalType": "uint256",
                    "name": "amount",
                    "type": "uint256"
                },
                {
                    "internalType": "bytes",
                    "name": "data",
                    "type": "bytes"
                }
            ],
            "name": "safeTransferFrom",
            "outputs": [],
            "stateMutability": "nonpayable",
            "type": "function"
        },
        {
            "inputs": [
                {
                    "internalType": "address",
                    "name": "operator",
                    "type": "address"
                },
                {
                    "internalType": "bool",
                    "name": "approved",
                    "type": "bool"
                }
            ],
            "name": "setApprovalForAll",
            "outputs": [],
            "stateMutability": "nonpayable",
            "type": "function"
        },
        {
            "inputs": [
                {
                    "internalType": "bytes4",
                    "name": "interfaceId",
                    "type": "bytes4"
                }
            ],
            "name": "supportsInterface",
            "outputs": [
                {
                    "internalType": "bool",
                    "name": "",
                    "type": "bool"
                }
            ],
            "stateMutability": "view",
            "type": "function"
        },
        {
            "inputs": [],
            "name": "symbol",
            "outputs": [
                {
                    "internalType": "string",
                    "name": "",
                    "type": "string"
                }
            ],
            "stateMutability": "view",
            "type": "function"
        },
        {
            "inputs": [],
            "name": "tokenId",
            "outputs": [
                {
                    "internalType": "uint256",
                    "name": "",
                    "type": "uint256"
                }
            ],
            "stateMutability": "view",
            "type": "function"
        },
        {
            "inputs": [
                {
                    "internalType": "uint256",
                    "name": "id",
                    "type": "uint256"
                }
            ],
            "name": "totalSupply",
            "outputs": [
                {
                    "internalType": "uint256",
                    "name": "",
                    "type": "uint256"
                }
            ],
            "stateMutability": "view",
            "type": "function"
        },
        {
            "inputs": [],
            "name": "unpause",
            "outputs": [],
            "stateMutability": "nonpayable",
            "type": "function"
        },
        {
            "inputs": [
                {
                    "internalType": "uint256",
                    "name": "_tokenId",
                    "type": "uint256"
                }
            ],
            "name": "uri",
            "outputs": [
                {
                    "internalType": "string",
                    "name": "",
                    "type": "string"
                }
            ],
            "stateMutability": "view",
            "type": "function"
        }
    ],
    "bytecode": "0x608060405260006005553480156200001657600080fd5b5060405162004fe538038062004fe583398181016040528101906200003c91906200027a565b6040518060400160405280600781526020017f6162632e636f6d0000000000000000000000000000000000000000000000000081525062000083816200013c60201b60201c565b506000600460006101000a81548160ff0219169083151502179055506006339080600181540180825580915050600190039060005260206000200160009091909190916101000a81548173ffffffffffffffffffffffffffffffffffffffff021916908373ffffffffffffffffffffffffffffffffffffffff16021790555081600790805190602001906200011a92919062000158565b5080600890805190602001906200013392919062000158565b5050506200045d565b80600290805190602001906200015492919062000158565b5050565b828054620001669062000382565b90600052602060002090601f0160209004810192826200018a5760008555620001d6565b82601f10620001a557805160ff1916838001178555620001d6565b82800160010185558215620001d6579182015b82811115620001d5578251825591602001919060010190620001b8565b5b509050620001e59190620001e9565b5090565b5b8082111562000204576000816000905550600101620001ea565b5090565b60006200021f620002198462000316565b620002ed565b9050828152602081018484840111156200023857600080fd5b620002458482856200034c565b509392505050565b600082601f8301126200025f57600080fd5b81516200027184826020860162000208565b91505092915050565b600080604083850312156200028e57600080fd5b600083015167ffffffffffffffff811115620002a957600080fd5b620002b7858286016200024d565b925050602083015167ffffffffffffffff811115620002d557600080fd5b620002e3858286016200024d565b9150509250929050565b6000620002f96200030c565b9050620003078282620003b8565b919050565b6000604051905090565b600067ffffffffffffffff8211156200033457620003336200041d565b5b6200033f826200044c565b9050602081019050919050565b60005b838110156200036c5780820151818401526020810190506200034f565b838111156200037c576000848401525b50505050565b600060028204905060018216806200039b57607f821691505b60208210811415620003b257620003b1620003ee565b5b50919050565b620003c3826200044c565b810181811067ffffffffffffffff82111715620003e557620003e46200041d565b5b80604052505050565b7f4e487b7100000000000000000000000000000000000000000000000000000000600052602260045260246000fd5b7f4e487b7100000000000000000000000000000000000000000000000000000000600052604160045260246000fd5b6000601f19601f8301169050919050565b614b78806200046d6000396000f3fe608060405234801561001057600080fd5b506004361061018d5760003560e01c80637065cb48116100de578063b71fbe4b11610097578063c3e4862f11610071578063c3e4862f146104ba578063d8735567146104d6578063e985e9c514610506578063f242432a146105365761018d565b8063b71fbe4b1461042a578063bd85b0391461045a578063bf1dd7851461048a5761018d565b80637065cb481461036a5780637b9461fc146103865780638456cb59146103b657806395d89b41146103c0578063979c4580146103de578063a22cb4651461040e5761018d565b806317d70f7c1161014b5780633f4ba83a116101255780633f4ba83a146102e25780634e1273f4146102ec5780634f558e791461031c5780635c975abb1461034c5761018d565b806317d70f7c1461028c5780632825df7b146102aa5780632eb2c2d6146102c65761018d565b8062fdd58e1461019257806301ffc9a7146101c2578063025e7c27146101f257806306fdde03146102225780630e89341c14610240578063173825d914610270575b600080fd5b6101ac60048036038101906101a79190613333565b610552565b6040516101b99190613f64565b60405180910390f35b6101dc60048036038101906101d791906133db565b61061b565b6040516101e99190613c47565b60405180910390f35b61020c60048036038101906102079190613531565b6106fd565b6040516102199190613aef565b60405180910390f35b61022a61073c565b6040516102379190613c62565b60405180910390f35b61025a60048036038101906102559190613531565b6107ca565b6040516102679190613c62565b60405180910390f35b61028a60048036038101906102859190613144565b61086f565b005b610294610bd8565b6040516102a19190613f64565b60405180910390f35b6102c460048036038101906102bf919061355a565b610bde565b005b6102e060048036038101906102db91906131a9565b610d13565b005b6102ea610db4565b005b6103066004803603810190610301919061336f565b610e13565b6040516103139190613bee565b60405180910390f35b61033660048036038101906103319190613531565b610fc4565b6040516103439190613c47565b60405180910390f35b610354610fd8565b6040516103619190613c47565b60405180910390f35b610384600480360381019061037f9190613144565b610fef565b005b6103a0600480360381019061039b9190613531565b6110ff565b6040516103ad9190613c62565b60405180910390f35b6103be61119f565b005b6103c86111fe565b6040516103d59190613c62565b60405180910390f35b6103f860048036038101906103f3919061342d565b61128c565b6040516104059190613bcc565b60405180910390f35b610428600480360381019061042391906132f7565b611440565b005b610444600480360381019061043f9190613144565b611456565b6040516104519190613c47565b60405180910390f35b610474600480360381019061046f9190613531565b61152b565b6040516104819190613f64565b60405180910390f35b6104a4600480360381019061049f919061342d565b611548565b6040516104b19190613bee565b60405180910390f35b6104d460048036038101906104cf919061346e565b6116fc565b005b6104f060048036038101906104eb919061342d565b6119db565b6040516104fd9190613c62565b60405180910390f35b610520600480360381019061051b919061316d565b611a97565b60405161052d9190613c47565b60405180910390f35b610550600480360381019061054b9190613268565b611b2b565b005b60008073ffffffffffffffffffffffffffffffffffffffff168373ffffffffffffffffffffffffffffffffffffffff1614156105c3576040517f08c379a00000000000000000000000000000000000000000000000000000000081526004016105ba90613d04565b60405180910390fd5b60008083815260200190815260200160002060008473ffffffffffffffffffffffffffffffffffffffff1673ffffffffffffffffffffffffffffffffffffffff16815260200190815260200160002054905092915050565b60007fd9b67a26000000000000000000000000000000000000000000000000000000007bffffffffffffffffffffffffffffffffffffffffffffffffffffffff1916827bffffffffffffffffffffffffffffffffffffffffffffffffffffffff191614806106e657507f0e89341c000000000000000000000000000000000000000000000000000000007bffffffffffffffffffffffffffffffffffffffffffffffffffffffff1916827bffffffffffffffffffffffffffffffffffffffffffffffffffffffff1916145b806106f657506106f582611bcc565b5b9050919050565b6006818154811061070d57600080fd5b906000526020600020016000915054906101000a900473ffffffffffffffffffffffffffffffffffffffff1681565b600780546107499061427c565b80601f01602080910402602001604051908101604052809291908181526020018280546107759061427c565b80156107c25780601f10610797576101008083540402835291602001916107c2565b820191906000526020600020905b8154815290600101906020018083116107a557829003601f168201915b505050505081565b6060600b600083815260200190815260200160002080546107ea9061427c565b80601f01602080910402602001604051908101604052809291908181526020018280546108169061427c565b80156108635780601f1061083857610100808354040283529160200191610863565b820191906000526020600020905b81548152906001019060200180831161084657829003601f168201915b50505050509050919050565b600061087a33611456565b905060011515811515146108c3576040517f08c379a00000000000000000000000000000000000000000000000000000000081526004016108ba90613f24565b60405180910390fd5b60016006805490501161090b576040517f08c379a000000000000000000000000000000000000000000000000000000000815260040161090290613ea4565b60405180910390fd5b60005b600680549050811015610b98578273ffffffffffffffffffffffffffffffffffffffff166006828154811061096c577f4e487b7100000000000000000000000000000000000000000000000000000000600052603260045260246000fd5b9060005260206000200160009054906101000a900473ffffffffffffffffffffffffffffffffffffffff1673ffffffffffffffffffffffffffffffffffffffff161415610b8557600681815481106109ed577f4e487b7100000000000000000000000000000000000000000000000000000000600052603260045260246000fd5b9060005260206000200160006101000a81549073ffffffffffffffffffffffffffffffffffffffff021916905560066001600680549050610a2e9190614192565b81548110610a65577f4e487b7100000000000000000000000000000000000000000000000000000000600052603260045260246000fd5b9060005260206000200160009054906101000a900473ffffffffffffffffffffffffffffffffffffffff1660068281548110610aca577f4e487b7100000000000000000000000000000000000000000000000000000000600052603260045260246000fd5b9060005260206000200160006101000a81548173ffffffffffffffffffffffffffffffffffffffff021916908373ffffffffffffffffffffffffffffffffffffffff1602179055506006805480610b4a577f4e487b7100000000000000000000000000000000000000000000000000000000600052603160045260246000fd5b6001900381819060005260206000200160006101000a81549073ffffffffffffffffffffffffffffffffffffffff0219169055905550610bd4565b8080610b90906142df565b91505061090e565b506040517f08c379a0000000000000000000000000000000000000000000000000000000008152600401610bcb90613d84565b60405180910390fd5b5050565b60055481565b6000610be933611456565b90506001151581151514610c32576040517f08c379a0000000000000000000000000000000000000000000000000000000008152600401610c2990613f24565b60405180910390fd5b6000600984604051610c449190613ad8565b90815260200160405180910390206000018054610c609061427c565b905011610ca2576040517f08c379a0000000000000000000000000000000000000000000000000000000008152600401610c9990613e44565b60405180910390fd5b610cae60055483611c36565b610ccb336005548660405180602001604052806000815250611c62565b82600a600060055481526020019081526020016000209080519060200190610cf4929190612d65565b5060056000815480929190610d08906142df565b919050555050505050565b610d1b611df8565b73ffffffffffffffffffffffffffffffffffffffff168573ffffffffffffffffffffffffffffffffffffffff161480610d615750610d6085610d5b611df8565b611a97565b5b610da0576040517f08c379a0000000000000000000000000000000000000000000000000000000008152600401610d9790613de4565b60405180910390fd5b610dad8585858585611e00565b5050505050565b6000610dbf33611456565b90506001151581151514610e08576040517f08c379a0000000000000000000000000000000000000000000000000000000008152600401610dff90613f24565b60405180910390fd5b610e10612160565b50565b60608151835114610e59576040517f08c379a0000000000000000000000000000000000000000000000000000000008152600401610e5090613e84565b60405180910390fd5b6000835167ffffffffffffffff811115610e9c577f4e487b7100000000000000000000000000000000000000000000000000000000600052604160045260246000fd5b604051908082528060200260200182016040528015610eca5781602001602082028036833780820191505090505b50905060005b8451811015610fb957610f63858281518110610f15577f4e487b7100000000000000000000000000000000000000000000000000000000600052603260045260246000fd5b6020026020010151858381518110610f56577f4e487b7100000000000000000000000000000000000000000000000000000000600052603260045260246000fd5b6020026020010151610552565b828281518110610f9c577f4e487b7100000000000000000000000000000000000000000000000000000000600052603260045260246000fd5b60200260200101818152505080610fb2906142df565b9050610ed0565b508091505092915050565b600080610fd08361152b565b119050919050565b6000600460009054906101000a900460ff16905090565b6000610ffa33611456565b90506001151581151514611043576040517f08c379a000000000000000000000000000000000000000000000000000000000815260040161103a90613f24565b60405180910390fd5b600061104e83611456565b90506000151581151514611097576040517f08c379a000000000000000000000000000000000000000000000000000000000815260040161108e90613d64565b60405180910390fd5b6006839080600181540180825580915050600190039060005260206000200160009091909190916101000a81548173ffffffffffffffffffffffffffffffffffffffff021916908373ffffffffffffffffffffffffffffffffffffffff160217905550505050565b600a602052806000526040600020600091509050805461111e9061427c565b80601f016020809104026020016040519081016040528092919081815260200182805461114a9061427c565b80156111975780601f1061116c57610100808354040283529160200191611197565b820191906000526020600020905b81548152906001019060200180831161117a57829003601f168201915b505050505081565b60006111aa33611456565b905060011515811515146111f3576040517f08c379a00000000000000000000000000000000000000000000000000000000081526004016111ea90613f24565b60405180910390fd5b6111fb612202565b50565b6008805461120b9061427c565b80601f01602080910402602001604051908101604052809291908181526020018280546112379061427c565b80156112845780601f1061125957610100808354040283529160200191611284565b820191906000526020600020905b81548152906001019060200180831161126757829003601f168201915b505050505081565b606060006009836040516112a09190613ad8565b90815260200160405180910390206040518060600160405290816000820180546112c99061427c565b80601f01602080910402602001604051908101604052809291908181526020018280546112f59061427c565b80156113425780601f1061131757610100808354040283529160200191611342565b820191906000526020600020905b81548152906001019060200180831161132557829003601f168201915b505050505081526020016001820180548060200260200160405190810160405280929190818152602001828054801561139a57602002820191906000526020600020905b815481526020019060010190808311611386575b505050505081526020016002820180548060200260200160405190810160405280929190818152602001828054801561142857602002820191906000526020600020905b8160009054906101000a900473ffffffffffffffffffffffffffffffffffffffff1673ffffffffffffffffffffffffffffffffffffffff16815260200190600101908083116113de575b50505050508152505090508060400151915050919050565b61145261144b611df8565b83836122a5565b5050565b600080600090505b600680549050811015611520578273ffffffffffffffffffffffffffffffffffffffff16600682815481106114bc577f4e487b7100000000000000000000000000000000000000000000000000000000600052603260045260246000fd5b9060005260206000200160009054906101000a900473ffffffffffffffffffffffffffffffffffffffff1673ffffffffffffffffffffffffffffffffffffffff16141561150d576001915050611526565b8080611518906142df565b91505061145e565b50600090505b919050565b600060036000838152602001908152602001600020549050919050565b6060600060098360405161155c9190613ad8565b90815260200160405180910390206040518060600160405290816000820180546115859061427c565b80601f01602080910402602001604051908101604052809291908181526020018280546115b19061427c565b80156115fe5780601f106115d3576101008083540402835291602001916115fe565b820191906000526020600020905b8154815290600101906020018083116115e157829003601f168201915b505050505081526020016001820180548060200260200160405190810160405280929190818152602001828054801561165657602002820191906000526020600020905b815481526020019060010190808311611642575b50505050508152602001600282018054806020026020016040519081016040528092919081815260200182805480156116e457602002820191906000526020600020905b8160009054906101000a900473ffffffffffffffffffffffffffffffffffffffff1673ffffffffffffffffffffffffffffffffffffffff168152602001906001019080831161169a575b50505050508152505090508060200151915050919050565b600061170733611456565b90506001151581151514611750576040517f08c379a000000000000000000000000000000000000000000000000000000000815260040161174790613f24565b60405180910390fd5b60006009866040516117629190613ad8565b9081526020016040518091039020600001805461177e9061427c565b9050146117c0576040517f08c379a00000000000000000000000000000000000000000000000000000000081526004016117b790613ec4565b60405180910390fd5b6000835111611804576040517f08c379a00000000000000000000000000000000000000000000000000000000081526004016117fb90613e24565b60405180910390fd5b600a82511115611849576040517f08c379a000000000000000000000000000000000000000000000000000000000815260040161184090613ce4565b60405180910390fd5b815183511461188d576040517f08c379a000000000000000000000000000000000000000000000000000000000815260040161188490613f44565b60405180910390fd5b6000805b83518110156118fb578381815181106118d3577f4e487b7100000000000000000000000000000000000000000000000000000000600052603260045260246000fd5b6020026020010151826118e6919061413c565b915080806118f3906142df565b915050611891565b50600a811115611940576040517f08c379a000000000000000000000000000000000000000000000000000000000815260040161193790613d24565b60405180910390fd5b60405180606001604052808681526020018481526020018581525060098760405161196b9190613ad8565b90815260200160405180910390206000820151816000019080519060200190611995929190612d65565b5060208201518160010190805190602001906119b2929190612deb565b5060408201518160020190805190602001906119cf929190612e38565b50905050505050505050565b600981805160208101820180518482526020830160208501208183528095505050505050600091509050806000018054611a149061427c565b80601f0160208091040260200160405190810160405280929190818152602001828054611a409061427c565b8015611a8d5780601f10611a6257610100808354040283529160200191611a8d565b820191906000526020600020905b815481529060010190602001808311611a7057829003601f168201915b5050505050905081565b6000600160008473ffffffffffffffffffffffffffffffffffffffff1673ffffffffffffffffffffffffffffffffffffffff16815260200190815260200160002060008373ffffffffffffffffffffffffffffffffffffffff1673ffffffffffffffffffffffffffffffffffffffff16815260200190815260200160002060009054906101000a900460ff16905092915050565b611b33611df8565b73ffffffffffffffffffffffffffffffffffffffff168573ffffffffffffffffffffffffffffffffffffffff161480611b795750611b7885611b73611df8565b611a97565b5b611bb8576040517f08c379a0000000000000000000000000000000000000000000000000000000008152600401611baf90613d44565b60405180910390fd5b611bc58585858585612412565b5050505050565b60007f01ffc9a7000000000000000000000000000000000000000000000000000000007bffffffffffffffffffffffffffffffffffffffffffffffffffffffff1916827bffffffffffffffffffffffffffffffffffffffffffffffffffffffff1916149050919050565b80600b60008481526020019081526020016000209080519060200190611c5d929190612d65565b505050565b600073ffffffffffffffffffffffffffffffffffffffff168473ffffffffffffffffffffffffffffffffffffffff161415611cd2576040517f08c379a0000000000000000000000000000000000000000000000000000000008152600401611cc990613f04565b60405180910390fd5b6000611cdc611df8565b9050611cfd81600087611cee88612694565b611cf788612694565b8761275a565b8260008086815260200190815260200160002060008773ffffffffffffffffffffffffffffffffffffffff1673ffffffffffffffffffffffffffffffffffffffff1681526020019081526020016000206000828254611d5c919061413c565b925050819055508473ffffffffffffffffffffffffffffffffffffffff16600073ffffffffffffffffffffffffffffffffffffffff168273ffffffffffffffffffffffffffffffffffffffff167fc3d58168c5ae7397731d063d5bbf3d657854427343f4c083240f7aacaa2d0f628787604051611dda929190613f7f565b60405180910390a4611df18160008787878761296c565b5050505050565b600033905090565b8151835114611e44576040517f08c379a0000000000000000000000000000000000000000000000000000000008152600401611e3b90613ee4565b60405180910390fd5b600073ffffffffffffffffffffffffffffffffffffffff168473ffffffffffffffffffffffffffffffffffffffff161415611eb4576040517f08c379a0000000000000000000000000000000000000000000000000000000008152600401611eab90613dc4565b60405180910390fd5b6000611ebe611df8565b9050611ece81878787878761275a565b60005b84518110156120cb576000858281518110611f15577f4e487b7100000000000000000000000000000000000000000000000000000000600052603260045260246000fd5b602002602001015190506000858381518110611f5a577f4e487b7100000000000000000000000000000000000000000000000000000000600052603260045260246000fd5b60200260200101519050600080600084815260200190815260200160002060008b73ffffffffffffffffffffffffffffffffffffffff1673ffffffffffffffffffffffffffffffffffffffff16815260200190815260200160002054905081811015611ffb576040517f08c379a0000000000000000000000000000000000000000000000000000000008152600401611ff290613e04565b60405180910390fd5b81810360008085815260200190815260200160002060008c73ffffffffffffffffffffffffffffffffffffffff1673ffffffffffffffffffffffffffffffffffffffff168152602001908152602001600020819055508160008085815260200190815260200160002060008b73ffffffffffffffffffffffffffffffffffffffff1673ffffffffffffffffffffffffffffffffffffffff16815260200190815260200160002060008282546120b0919061413c565b92505081905550505050806120c4906142df565b9050611ed1565b508473ffffffffffffffffffffffffffffffffffffffff168673ffffffffffffffffffffffffffffffffffffffff168273ffffffffffffffffffffffffffffffffffffffff167f4a39dc06d4c0dbc64b70af90fd698a233a518aa5d07e595d983b8c0526c8f7fb8787604051612142929190613c10565b60405180910390a4612158818787878787612b53565b505050505050565b612168610fd8565b6121a7576040517f08c379a000000000000000000000000000000000000000000000000000000000815260040161219e90613cc4565b60405180910390fd5b6000600460006101000a81548160ff0219169083151502179055507f5db9ee0a495bf2e6ff9c91a7834c1ba4fdd244a5e8aa4e537bd38aeae4b073aa6121eb611df8565b6040516121f89190613aef565b60405180910390a1565b61220a610fd8565b1561224a576040517f08c379a000000000000000000000000000000000000000000000000000000000815260040161224190613da4565b60405180910390fd5b6001600460006101000a81548160ff0219169083151502179055507f62e78cea01bee320cd4e420270b5ea74000d11b0c9f74754ebdbfc544b05a25861228e611df8565b60405161229b9190613aef565b60405180910390a1565b8173ffffffffffffffffffffffffffffffffffffffff168373ffffffffffffffffffffffffffffffffffffffff161415612314576040517f08c379a000000000000000000000000000000000000000000000000000000000815260040161230b90613e64565b60405180910390fd5b80600160008573ffffffffffffffffffffffffffffffffffffffff1673ffffffffffffffffffffffffffffffffffffffff16815260200190815260200160002060008473ffffffffffffffffffffffffffffffffffffffff1673ffffffffffffffffffffffffffffffffffffffff16815260200190815260200160002060006101000a81548160ff0219169083151502179055508173ffffffffffffffffffffffffffffffffffffffff168373ffffffffffffffffffffffffffffffffffffffff167f17307eab39ab6107e8899845ad3d59bd9653f200f220920489ca2b5937696c31836040516124059190613c47565b60405180910390a3505050565b600073ffffffffffffffffffffffffffffffffffffffff168473ffffffffffffffffffffffffffffffffffffffff161415612482576040517f08c379a000000000000000000000000000000000000000000000000000000000815260040161247990613dc4565b60405180910390fd5b600061248c611df8565b90506124ac81878761249d88612694565b6124a688612694565b8761275a565b600080600086815260200190815260200160002060008873ffffffffffffffffffffffffffffffffffffffff1673ffffffffffffffffffffffffffffffffffffffff16815260200190815260200160002054905083811015612543576040517f08c379a000000000000000000000000000000000000000000000000000000000815260040161253a90613e04565b60405180910390fd5b83810360008087815260200190815260200160002060008973ffffffffffffffffffffffffffffffffffffffff1673ffffffffffffffffffffffffffffffffffffffff168152602001908152602001600020819055508360008087815260200190815260200160002060008873ffffffffffffffffffffffffffffffffffffffff1673ffffffffffffffffffffffffffffffffffffffff16815260200190815260200160002060008282546125f8919061413c565b925050819055508573ffffffffffffffffffffffffffffffffffffffff168773ffffffffffffffffffffffffffffffffffffffff168373ffffffffffffffffffffffffffffffffffffffff167fc3d58168c5ae7397731d063d5bbf3d657854427343f4c083240f7aacaa2d0f628888604051612675929190613f7f565b60405180910390a461268b82888888888861296c565b50505050505050565b60606000600167ffffffffffffffff8111156126d9577f4e487b7100000000000000000000000000000000000000000000000000000000600052604160045260246000fd5b6040519080825280602002602001820160405280156127075781602001602082028036833780820191505090505b5090508281600081518110612745577f4e487b7100000000000000000000000000000000000000000000000000000000600052603260045260246000fd5b60200260200101818152505080915050919050565b612768868686868686612d3a565b600073ffffffffffffffffffffffffffffffffffffffff168573ffffffffffffffffffffffffffffffffffffffff1614156128665760005b8351811015612864578281815181106127e2577f4e487b7100000000000000000000000000000000000000000000000000000000600052603260045260246000fd5b602002602001015160036000868481518110612827577f4e487b7100000000000000000000000000000000000000000000000000000000600052603260045260246000fd5b60200260200101518152602001908152602001600020600082825461284c919061413c565b925050819055508061285d906142df565b90506127a0565b505b600073ffffffffffffffffffffffffffffffffffffffff168473ffffffffffffffffffffffffffffffffffffffff1614156129645760005b8351811015612962578281815181106128e0577f4e487b7100000000000000000000000000000000000000000000000000000000600052603260045260246000fd5b602002602001015160036000868481518110612925577f4e487b7100000000000000000000000000000000000000000000000000000000600052603260045260246000fd5b60200260200101518152602001908152602001600020600082825461294a9190614192565b925050819055508061295b906142df565b905061289e565b505b505050505050565b61298b8473ffffffffffffffffffffffffffffffffffffffff16612d42565b15612b4b578373ffffffffffffffffffffffffffffffffffffffff1663f23a6e6187878686866040518663ffffffff1660e01b81526004016129d1959493929190613b72565b602060405180830381600087803b1580156129eb57600080fd5b505af1925050508015612a1c57506040513d601f19601f82011682018060405250810190612a199190613404565b60015b612ac257612a286143b5565b806308c379a01415612a855750612a3d614a50565b80612a485750612a87565b806040517f08c379a0000000000000000000000000000000000000000000000000000000008152600401612a7c9190613c62565b60405180910390fd5b505b6040517f08c379a0000000000000000000000000000000000000000000000000000000008152600401612ab990613c84565b60405180910390fd5b63f23a6e6160e01b7bffffffffffffffffffffffffffffffffffffffffffffffffffffffff1916817bffffffffffffffffffffffffffffffffffffffffffffffffffffffff191614612b49576040517f08c379a0000000000000000000000000000000000000000000000000000000008152600401612b4090613ca4565b60405180910390fd5b505b505050505050565b612b728473ffffffffffffffffffffffffffffffffffffffff16612d42565b15612d32578373ffffffffffffffffffffffffffffffffffffffff1663bc197c8187878686866040518663ffffffff1660e01b8152600401612bb8959493929190613b0a565b602060405180830381600087803b158015612bd257600080fd5b505af1925050508015612c0357506040513d601f19601f82011682018060405250810190612c009190613404565b60015b612ca957612c0f6143b5565b806308c379a01415612c6c5750612c24614a50565b80612c2f5750612c6e565b806040517f08c379a0000000000000000000000000000000000000000000000000000000008152600401612c639190613c62565b60405180910390fd5b505b6040517f08c379a0000000000000000000000000000000000000000000000000000000008152600401612ca090613c84565b60405180910390fd5b63bc197c8160e01b7bffffffffffffffffffffffffffffffffffffffffffffffffffffffff1916817bffffffffffffffffffffffffffffffffffffffffffffffffffffffff191614612d30576040517f08c379a0000000000000000000000000000000000000000000000000000000008152600401612d2790613ca4565b60405180910390fd5b505b505050505050565b505050505050565b6000808273ffffffffffffffffffffffffffffffffffffffff163b119050919050565b828054612d719061427c565b90600052602060002090601f016020900481019282612d935760008555612dda565b82601f10612dac57805160ff1916838001178555612dda565b82800160010185558215612dda579182015b82811115612dd9578251825591602001919060010190612dbe565b5b509050612de79190612ec2565b5090565b828054828255906000526020600020908101928215612e27579160200282015b82811115612e26578251825591602001919060010190612e0b565b5b509050612e349190612ec2565b5090565b828054828255906000526020600020908101928215612eb1579160200282015b82811115612eb05782518260006101000a81548173ffffffffffffffffffffffffffffffffffffffff021916908373ffffffffffffffffffffffffffffffffffffffff16021790555091602001919060010190612e58565b5b509050612ebe9190612ec2565b5090565b5b80821115612edb576000816000905550600101612ec3565b5090565b6000612ef2612eed84613fcd565b613fa8565b90508083825260208201905082856020860282011115612f1157600080fd5b60005b85811015612f415781612f278882613033565b845260208401935060208301925050600181019050612f14565b5050509392505050565b6000612f5e612f5984613ff9565b613fa8565b90508083825260208201905082856020860282011115612f7d57600080fd5b60005b85811015612fad5781612f93888261312f565b845260208401935060208301925050600181019050612f80565b5050509392505050565b6000612fca612fc584614025565b613fa8565b905082815260208101848484011115612fe257600080fd5b612fed84828561423a565b509392505050565b600061300861300384614056565b613fa8565b90508281526020810184848401111561302057600080fd5b61302b84828561423a565b509392505050565b60008135905061304281614ae6565b92915050565b600082601f83011261305957600080fd5b8135613069848260208601612edf565b91505092915050565b600082601f83011261308357600080fd5b8135613093848260208601612f4b565b91505092915050565b6000813590506130ab81614afd565b92915050565b6000813590506130c081614b14565b92915050565b6000815190506130d581614b14565b92915050565b600082601f8301126130ec57600080fd5b81356130fc848260208601612fb7565b91505092915050565b600082601f83011261311657600080fd5b8135613126848260208601612ff5565b91505092915050565b60008135905061313e81614b2b565b92915050565b60006020828403121561315657600080fd5b600061316484828501613033565b91505092915050565b6000806040838503121561318057600080fd5b600061318e85828601613033565b925050602061319f85828601613033565b9150509250929050565b600080600080600060a086880312156131c157600080fd5b60006131cf88828901613033565b95505060206131e088828901613033565b945050604086013567ffffffffffffffff8111156131fd57600080fd5b61320988828901613072565b935050606086013567ffffffffffffffff81111561322657600080fd5b61323288828901613072565b925050608086013567ffffffffffffffff81111561324f57600080fd5b61325b888289016130db565b9150509295509295909350565b600080600080600060a0868803121561328057600080fd5b600061328e88828901613033565b955050602061329f88828901613033565b94505060406132b08882890161312f565b93505060606132c18882890161312f565b925050608086013567ffffffffffffffff8111156132de57600080fd5b6132ea888289016130db565b9150509295509295909350565b6000806040838503121561330a57600080fd5b600061331885828601613033565b92505060206133298582860161309c565b9150509250929050565b6000806040838503121561334657600080fd5b600061335485828601613033565b92505060206133658582860161312f565b9150509250929050565b6000806040838503121561338257600080fd5b600083013567ffffffffffffffff81111561339c57600080fd5b6133a885828601613048565b925050602083013567ffffffffffffffff8111156133c557600080fd5b6133d185828601613072565b9150509250929050565b6000602082840312156133ed57600080fd5b60006133fb848285016130b1565b91505092915050565b60006020828403121561341657600080fd5b6000613424848285016130c6565b91505092915050565b60006020828403121561343f57600080fd5b600082013567ffffffffffffffff81111561345957600080fd5b61346584828501613105565b91505092915050565b6000806000806080858703121561348457600080fd5b600085013567ffffffffffffffff81111561349e57600080fd5b6134aa87828801613105565b945050602085013567ffffffffffffffff8111156134c757600080fd5b6134d387828801613105565b935050604085013567ffffffffffffffff8111156134f057600080fd5b6134fc87828801613048565b925050606085013567ffffffffffffffff81111561351957600080fd5b61352587828801613072565b91505092959194509250565b60006020828403121561354357600080fd5b60006135518482850161312f565b91505092915050565b60008060006060848603121561356f57600080fd5b600061357d8682870161312f565b935050602084013567ffffffffffffffff81111561359a57600080fd5b6135a686828701613105565b925050604084013567ffffffffffffffff8111156135c357600080fd5b6135cf86828701613105565b9150509250925092565b60006135e58383613609565b60208301905092915050565b60006135fd8383613aba565b60208301905092915050565b613612816141c6565b82525050565b613621816141c6565b82525050565b6000613632826140a7565b61363c81856140ed565b935061364783614087565b8060005b8381101561367857815161365f88826135d9565b975061366a836140d3565b92505060018101905061364b565b5085935050505092915050565b6000613690826140b2565b61369a81856140fe565b93506136a583614097565b8060005b838110156136d65781516136bd88826135f1565b97506136c8836140e0565b9250506001810190506136a9565b5085935050505092915050565b6136ec816141d8565b82525050565b60006136fd826140bd565b613707818561410f565b9350613717818560208601614249565b613720816143d7565b840191505092915050565b6000613736826140c8565b6137408185614120565b9350613750818560208601614249565b613759816143d7565b840191505092915050565b600061376f826140c8565b6137798185614131565b9350613789818560208601614249565b80840191505092915050565b60006137a2603483614120565b91506137ad826143f5565b604082019050919050565b60006137c5602883614120565b91506137d082614444565b604082019050919050565b60006137e8601483614120565b91506137f382614493565b602082019050919050565b600061380b602c83614120565b9150613816826144bc565b604082019050919050565b600061382e602b83614120565b91506138398261450b565b604082019050919050565b6000613851602483614120565b915061385c8261455a565b604082019050919050565b6000613874602983614120565b915061387f826145a9565b604082019050919050565b6000613897601d83614120565b91506138a2826145f8565b602082019050919050565b60006138ba601983614120565b91506138c582614621565b602082019050919050565b60006138dd601083614120565b91506138e88261464a565b602082019050919050565b6000613900602583614120565b915061390b82614673565b604082019050919050565b6000613923603283614120565b915061392e826146c2565b604082019050919050565b6000613946602a83614120565b915061395182614711565b604082019050919050565b6000613969602883614120565b915061397482614760565b604082019050919050565b600061398c601783614120565b9150613997826147af565b602082019050919050565b60006139af602983614120565b91506139ba826147d8565b604082019050919050565b60006139d2602983614120565b91506139dd82614827565b604082019050919050565b60006139f5603183614120565b9150613a0082614876565b604082019050919050565b6000613a18602f83614120565b9150613a23826148c5565b604082019050919050565b6000613a3b602883614120565b9150613a4682614914565b604082019050919050565b6000613a5e602183614120565b9150613a6982614963565b604082019050919050565b6000613a81602883614120565b9150613a8c826149b2565b604082019050919050565b6000613aa4603c83614120565b9150613aaf82614a01565b604082019050919050565b613ac381614230565b82525050565b613ad281614230565b82525050565b6000613ae48284613764565b915081905092915050565b6000602082019050613b046000830184613618565b92915050565b600060a082019050613b1f6000830188613618565b613b2c6020830187613618565b8181036040830152613b3e8186613685565b90508181036060830152613b528185613685565b90508181036080830152613b6681846136f2565b90509695505050505050565b600060a082019050613b876000830188613618565b613b946020830187613618565b613ba16040830186613ac9565b613bae6060830185613ac9565b8181036080830152613bc081846136f2565b90509695505050505050565b60006020820190508181036000830152613be68184613627565b905092915050565b60006020820190508181036000830152613c088184613685565b905092915050565b60006040820190508181036000830152613c2a8185613685565b90508181036020830152613c3e8184613685565b90509392505050565b6000602082019050613c5c60008301846136e3565b92915050565b60006020820190508181036000830152613c7c818461372b565b905092915050565b60006020820190508181036000830152613c9d81613795565b9050919050565b60006020820190508181036000830152613cbd816137b8565b9050919050565b60006020820190508181036000830152613cdd816137db565b9050919050565b60006020820190508181036000830152613cfd816137fe565b9050919050565b60006020820190508181036000830152613d1d81613821565b9050919050565b60006020820190508181036000830152613d3d81613844565b9050919050565b60006020820190508181036000830152613d5d81613867565b9050919050565b60006020820190508181036000830152613d7d8161388a565b9050919050565b60006020820190508181036000830152613d9d816138ad565b9050919050565b60006020820190508181036000830152613dbd816138d0565b9050919050565b60006020820190508181036000830152613ddd816138f3565b9050919050565b60006020820190508181036000830152613dfd81613916565b9050919050565b60006020820190508181036000830152613e1d81613939565b9050919050565b60006020820190508181036000830152613e3d8161395c565b9050919050565b60006020820190508181036000830152613e5d8161397f565b9050919050565b60006020820190508181036000830152613e7d816139a2565b9050919050565b60006020820190508181036000830152613e9d816139c5565b9050919050565b60006020820190508181036000830152613ebd816139e8565b9050919050565b60006020820190508181036000830152613edd81613a0b565b9050919050565b60006020820190508181036000830152613efd81613a2e565b9050919050565b60006020820190508181036000830152613f1d81613a51565b9050919050565b60006020820190508181036000830152613f3d81613a74565b9050919050565b60006020820190508181036000830152613f5d81613a97565b9050919050565b6000602082019050613f796000830184613ac9565b92915050565b6000604082019050613f946000830185613ac9565b613fa16020830184613ac9565b9392505050565b6000613fb2613fc3565b9050613fbe82826142ae565b919050565b6000604051905090565b600067ffffffffffffffff821115613fe857613fe7614386565b5b602082029050602081019050919050565b600067ffffffffffffffff82111561401457614013614386565b5b602082029050602081019050919050565b600067ffffffffffffffff8211156140405761403f614386565b5b614049826143d7565b9050602081019050919050565b600067ffffffffffffffff82111561407157614070614386565b5b61407a826143d7565b9050602081019050919050565b6000819050602082019050919050565b6000819050602082019050919050565b600081519050919050565b600081519050919050565b600081519050919050565b600081519050919050565b6000602082019050919050565b6000602082019050919050565b600082825260208201905092915050565b600082825260208201905092915050565b600082825260208201905092915050565b600082825260208201905092915050565b600081905092915050565b600061414782614230565b915061415283614230565b9250827fffffffffffffffffffffffffffffffffffffffffffffffffffffffffffffffff0382111561418757614186614328565b5b828201905092915050565b600061419d82614230565b91506141a883614230565b9250828210156141bb576141ba614328565b5b828203905092915050565b60006141d182614210565b9050919050565b60008115159050919050565b60007fffffffff0000000000000000000000000000000000000000000000000000000082169050919050565b600073ffffffffffffffffffffffffffffffffffffffff82169050919050565b6000819050919050565b82818337600083830152505050565b60005b8381101561426757808201518184015260208101905061424c565b83811115614276576000848401525b50505050565b6000600282049050600182168061429457607f821691505b602082108114156142a8576142a7614357565b5b50919050565b6142b7826143d7565b810181811067ffffffffffffffff821117156142d6576142d5614386565b5b80604052505050565b60006142ea82614230565b91507fffffffffffffffffffffffffffffffffffffffffffffffffffffffffffffffff82141561431d5761431c614328565b5b600182019050919050565b7f4e487b7100000000000000000000000000000000000000000000000000000000600052601160045260246000fd5b7f4e487b7100000000000000000000000000000000000000000000000000000000600052602260045260246000fd5b7f4e487b7100000000000000000000000000000000000000000000000000000000600052604160045260246000fd5b600060033d11156143d45760046000803e6143d16000516143e8565b90505b90565b6000601f19601f8301169050919050565b60008160e01c9050919050565b7f455243313135353a207472616e7366657220746f206e6f6e204552433131353560008201527f526563656976657220696d706c656d656e746572000000000000000000000000602082015250565b7f455243313135353a204552433131353552656365697665722072656a6563746560008201527f6420746f6b656e73000000000000000000000000000000000000000000000000602082015250565b7f5061757361626c653a206e6f7420706175736564000000000000000000000000600082015250565b7f54686572652063616e6e6f74206265206d6f7265207468616e20313020726f7960008201527f616c747920686f6c646572730000000000000000000000000000000000000000602082015250565b7f455243313135353a2062616c616e636520717565727920666f7220746865207a60008201527f65726f2061646472657373000000000000000000000000000000000000000000602082015250565b7f526f79616c74792073686f756c64206265206265747765656e203020616e642060008201527f3130202500000000000000000000000000000000000000000000000000000000602082015250565b7f455243313135353a2063616c6c6572206973206e6f74206f776e6572206e6f7260008201527f20617070726f7665640000000000000000000000000000000000000000000000602082015250565b7f54686973207573657220697320616c726561647920616e206f776e6572000000600082015250565b7f546869732075736572206973206e6f7420616e206f776e657200000000000000600082015250565b7f5061757361626c653a2070617573656400000000000000000000000000000000600082015250565b7f455243313135353a207472616e7366657220746f20746865207a65726f20616460008201527f6472657373000000000000000000000000000000000000000000000000000000602082015250565b7f455243313135353a207472616e736665722063616c6c6572206973206e6f742060008201527f6f776e6572206e6f7220617070726f7665640000000000000000000000000000602082015250565b7f455243313135353a20696e73756666696369656e742062616c616e636520666f60008201527f72207472616e7366657200000000000000000000000000000000000000000000602082015250565b7f54686572652073686f756c642061746c65617374206265203120726f79616c7460008201527f7920686f6c646572000000000000000000000000000000000000000000000000602082015250565b7f436f6c6c656374696f6e206964206e6f7420666f756e64000000000000000000600082015250565b7f455243313135353a2073657474696e6720617070726f76616c2073746174757360008201527f20666f722073656c660000000000000000000000000000000000000000000000602082015250565b7f455243313135353a206163636f756e747320616e6420696473206c656e67746860008201527f206d69736d617463680000000000000000000000000000000000000000000000602082015250565b7f54686572652068617320746f2062652061746c65617374206f6e65206f776e6560008201527f72206f662074686520636f6e7472616374000000000000000000000000000000602082015250565b7f4120636f6c6c656374696f6e207769746820746869732069642068617320616c60008201527f7265616479206265656e206d6164650000000000000000000000000000000000602082015250565b7f455243313135353a2069647320616e6420616d6f756e7473206c656e6774682060008201527f6d69736d61746368000000000000000000000000000000000000000000000000602082015250565b7f455243313135353a206d696e7420746f20746865207a65726f2061646472657360008201527f7300000000000000000000000000000000000000000000000000000000000000602082015250565b7f4f6e6c79206f776e65727320686176652061636365737320746f20746869732060008201527f66756e6374696f6e000000000000000000000000000000000000000000000000602082015250565b7f546865206c656e677468206f6620696e70757420726f79616c747920616e642060008201527f726f79616c747920686f6c646572732073686f756c64206d6174636800000000602082015250565b600060443d1015614a6057614ae3565b614a68613fc3565b60043d036004823e80513d602482011167ffffffffffffffff82111715614a90575050614ae3565b808201805167ffffffffffffffff811115614aae5750505050614ae3565b80602083010160043d038501811115614acb575050505050614ae3565b614ada826020018501866142ae565b82955050505050505b90565b614aef816141c6565b8114614afa57600080fd5b50565b614b06816141d8565b8114614b1157600080fd5b50565b614b1d816141e4565b8114614b2857600080fd5b50565b614b3481614230565b8114614b3f57600080fd5b5056fea2646970667358221220ee3ace2de9c99280e5c544d2e9c42fa597676c06da95f29466903d0495122cf764736f6c63430008040033",
    "linkReferences": {},
    "deployedLinkReferences": {},
    "contractAddress": "0xf6921d24e7e0e9833fb09d329e5fef720718b775"
}